{
  "contractName": "CardUtils",
  "abi": [
    {
      "inputs": [
        {
          "components": [
            {
              "components": [
                {
                  "internalType": "string",
                  "name": "uuid",
                  "type": "string"
                },
                {
                  "internalType": "string",
                  "name": "id",
                  "type": "string"
                },
                {
                  "internalType": "uint32",
                  "name": "baseId",
                  "type": "uint32"
                },
                {
                  "internalType": "uint32",
                  "name": "number",
                  "type": "uint32"
                },
                {
                  "internalType": "enum CardUtils.CardType",
                  "name": "cardType",
                  "type": "CardUtils.CardType"
                },
                {
                  "internalType": "string",
                  "name": "category",
                  "type": "string"
                },
                {
                  "internalType": "enum CardUtils.CardRarity",
                  "name": "rarity",
                  "type": "CardUtils.CardRarity"
                }
              ],
              "internalType": "struct CardUtils.Card",
              "name": "base",
              "type": "tuple"
            },
            {
              "components": [
                {
                  "internalType": "string",
                  "name": "name",
                  "type": "string"
                },
                {
                  "internalType": "string",
                  "name": "description",
                  "type": "string"
                },
                {
                  "internalType": "uint32",
                  "name": "version",
                  "type": "uint32"
                },
                {
                  "internalType": "string",
                  "name": "illustrator",
                  "type": "string"
                },
                {
                  "internalType": "string",
                  "name": "medias",
                  "type": "string"
                }
              ],
              "internalType": "struct CardUtils.CardInfo",
              "name": "info",
              "type": "tuple"
            },
            {
              "components": [
                {
                  "internalType": "string",
                  "name": "uuid",
                  "type": "string"
                },
                {
                  "internalType": "address",
                  "name": "owner",
                  "type": "address"
                }
              ],
              "internalType": "struct CardUtils.CardOwner",
              "name": "owner",
              "type": "tuple"
            },
            {
              "components": [
                {
                  "internalType": "bool",
                  "name": "alternative",
                  "type": "bool"
                },
                {
                  "internalType": "bool",
                  "name": "foil",
                  "type": "bool"
                }
              ],
              "internalType": "struct CardUtils.CardAttr",
              "name": "attr",
              "type": "tuple"
            },
            {
              "components": [
                {
                  "internalType": "string",
                  "name": "element",
                  "type": "string"
                },
                {
                  "internalType": "string",
                  "name": "origin",
                  "type": "string"
                },
                {
                  "internalType": "string",
                  "name": "faction",
                  "type": "string"
                },
                {
                  "internalType": "uint32",
                  "name": "basePower",
                  "type": "uint32"
                },
                {
                  "internalType": "uint8",
                  "name": "potential",
                  "type": "uint8"
                },
                {
                  "internalType": "uint8",
                  "name": "rank",
                  "type": "uint8"
                },
                {
                  "internalType": "bool",
                  "name": "alternativeCombo",
                  "type": "bool"
                }
              ],
              "internalType": "struct CardUtils.CardExtra",
              "name": "extra",
              "type": "tuple"
            }
          ],
          "internalType": "struct CardUtils.BattleCard",
          "name": "self",
          "type": "tuple"
        }
      ],
      "name": "toTokenURI",
      "outputs": [
        {
          "internalType": "string",
          "name": "",
          "type": "string"
        }
      ],
      "stateMutability": "pure",
      "type": "function"
    },
    {
      "inputs": [
        {
          "components": [
            {
              "components": [
                {
                  "internalType": "string",
                  "name": "uuid",
                  "type": "string"
                },
                {
                  "internalType": "string",
                  "name": "id",
                  "type": "string"
                },
                {
                  "internalType": "uint32",
                  "name": "baseId",
                  "type": "uint32"
                },
                {
                  "internalType": "uint32",
                  "name": "number",
                  "type": "uint32"
                },
                {
                  "internalType": "enum CardUtils.CardType",
                  "name": "cardType",
                  "type": "CardUtils.CardType"
                },
                {
                  "internalType": "string",
                  "name": "category",
                  "type": "string"
                },
                {
                  "internalType": "enum CardUtils.CardRarity",
                  "name": "rarity",
                  "type": "CardUtils.CardRarity"
                }
              ],
              "internalType": "struct CardUtils.Card",
              "name": "base",
              "type": "tuple"
            },
            {
              "components": [
                {
                  "internalType": "string",
                  "name": "name",
                  "type": "string"
                },
                {
                  "internalType": "string",
                  "name": "description",
                  "type": "string"
                },
                {
                  "internalType": "uint32",
                  "name": "version",
                  "type": "uint32"
                },
                {
                  "internalType": "string",
                  "name": "illustrator",
                  "type": "string"
                },
                {
                  "internalType": "string",
                  "name": "medias",
                  "type": "string"
                }
              ],
              "internalType": "struct CardUtils.CardInfo",
              "name": "info",
              "type": "tuple"
            },
            {
              "components": [
                {
                  "internalType": "string",
                  "name": "uuid",
                  "type": "string"
                },
                {
                  "internalType": "address",
                  "name": "owner",
                  "type": "address"
                }
              ],
              "internalType": "struct CardUtils.CardOwner",
              "name": "owner",
              "type": "tuple"
            },
            {
              "components": [
                {
                  "internalType": "bool",
                  "name": "alternative",
                  "type": "bool"
                },
                {
                  "internalType": "bool",
                  "name": "foil",
                  "type": "bool"
                }
              ],
              "internalType": "struct CardUtils.CardAttr",
              "name": "attr",
              "type": "tuple"
            }
          ],
          "internalType": "struct CardUtils.NormalCard",
          "name": "self",
          "type": "tuple"
        }
      ],
      "name": "toTokenURI",
      "outputs": [
        {
          "internalType": "string",
          "name": "",
          "type": "string"
        }
      ],
      "stateMutability": "pure",
      "type": "function"
    },
    {
      "inputs": [
        {
          "internalType": "string",
          "name": "traitType",
          "type": "string"
        },
        {
          "internalType": "string",
          "name": "traitValue",
          "type": "string"
        }
      ],
      "name": "attributeTraitType",
      "outputs": [
        {
          "internalType": "string",
          "name": "",
          "type": "string"
        }
      ],
      "stateMutability": "pure",
      "type": "function"
    },
    {
      "inputs": [
        {
          "components": [
            {
              "internalType": "string",
              "name": "name",
              "type": "string"
            },
            {
              "internalType": "string",
              "name": "description",
              "type": "string"
            },
            {
              "internalType": "uint32",
              "name": "version",
              "type": "uint32"
            },
            {
              "internalType": "string",
              "name": "illustrator",
              "type": "string"
            },
            {
              "internalType": "string",
              "name": "medias",
              "type": "string"
            }
          ],
          "internalType": "struct CardUtils.CardInfo",
          "name": "self",
          "type": "tuple"
        }
      ],
      "name": "headerJson",
      "outputs": [
        {
          "internalType": "string",
          "name": "",
          "type": "string"
        }
      ],
      "stateMutability": "pure",
      "type": "function"
    },
    {
      "inputs": [
        {
          "components": [
            {
              "internalType": "string",
              "name": "name",
              "type": "string"
            },
            {
              "internalType": "string",
              "name": "description",
              "type": "string"
            },
            {
              "internalType": "uint32",
              "name": "version",
              "type": "uint32"
            },
            {
              "internalType": "string",
              "name": "illustrator",
              "type": "string"
            },
            {
              "internalType": "string",
              "name": "medias",
              "type": "string"
            }
          ],
          "internalType": "struct CardUtils.CardInfo",
          "name": "self",
          "type": "tuple"
        }
      ],
      "name": "infoJson",
      "outputs": [
        {
          "internalType": "string",
          "name": "",
          "type": "string"
        }
      ],
      "stateMutability": "pure",
      "type": "function"
    },
    {
      "inputs": [
        {
          "components": [
            {
              "internalType": "bool",
              "name": "alternative",
              "type": "bool"
            },
            {
              "internalType": "bool",
              "name": "foil",
              "type": "bool"
            }
          ],
          "internalType": "struct CardUtils.CardAttr",
          "name": "self",
          "type": "tuple"
        }
      ],
      "name": "attrJson",
      "outputs": [
        {
          "internalType": "string",
          "name": "",
          "type": "string"
        }
      ],
      "stateMutability": "pure",
      "type": "function"
    },
    {
      "inputs": [
        {
          "components": [
            {
              "internalType": "string",
              "name": "element",
              "type": "string"
            },
            {
              "internalType": "string",
              "name": "origin",
              "type": "string"
            },
            {
              "internalType": "string",
              "name": "faction",
              "type": "string"
            },
            {
              "internalType": "uint32",
              "name": "basePower",
              "type": "uint32"
            },
            {
              "internalType": "uint8",
              "name": "potential",
              "type": "uint8"
            },
            {
              "internalType": "uint8",
              "name": "rank",
              "type": "uint8"
            },
            {
              "internalType": "bool",
              "name": "alternativeCombo",
              "type": "bool"
            }
          ],
          "internalType": "struct CardUtils.CardExtra",
          "name": "self",
          "type": "tuple"
        }
      ],
      "name": "extraJson",
      "outputs": [
        {
          "internalType": "string",
          "name": "",
          "type": "string"
        }
      ],
      "stateMutability": "pure",
      "type": "function"
    },
    {
      "inputs": [
        {
          "components": [
            {
              "internalType": "string",
              "name": "uuid",
              "type": "string"
            },
            {
              "internalType": "address",
              "name": "owner",
              "type": "address"
            }
          ],
          "internalType": "struct CardUtils.CardOwner",
          "name": "self",
          "type": "tuple"
        }
      ],
      "name": "ownerJson",
      "outputs": [
        {
          "internalType": "string",
          "name": "",
          "type": "string"
        }
      ],
      "stateMutability": "pure",
      "type": "function"
    },
    {
      "inputs": [
        {
          "components": [
            {
              "internalType": "string",
              "name": "uuid",
              "type": "string"
            },
            {
              "internalType": "string",
              "name": "id",
              "type": "string"
            },
            {
              "internalType": "uint32",
              "name": "baseId",
              "type": "uint32"
            },
            {
              "internalType": "uint32",
              "name": "number",
              "type": "uint32"
            },
            {
              "internalType": "enum CardUtils.CardType",
              "name": "cardType",
              "type": "CardUtils.CardType"
            },
            {
              "internalType": "string",
              "name": "category",
              "type": "string"
            },
            {
              "internalType": "enum CardUtils.CardRarity",
              "name": "rarity",
              "type": "CardUtils.CardRarity"
            }
          ],
          "internalType": "struct CardUtils.Card",
          "name": "self",
          "type": "tuple"
        }
      ],
      "name": "baseJson",
      "outputs": [
        {
          "internalType": "string",
          "name": "",
          "type": "string"
        }
      ],
      "stateMutability": "pure",
      "type": "function"
    }
  ],
  "bytecode": "0x61218961003a600b82828239805160001a60731461002d57634e487b7160e01b600052600060045260246000fd5b30600052607381538281f3fe730000000000000000000000000000000000000000301460806040526004361061009d5760003560e01c8063588a243a11610070578063588a243a146101045780636fcbe19e1461011757806375e304ab1461012a578063af78121e1461013d578063f83538eb146101505761009d565b8063033839cf146100a25780633be8f8b9146100cb5780633d899736146100de578063463c02dd146100f1575b600080fd5b6100b56100b03660046119de565b610163565b6040516100c29190611e21565b60405180910390f35b6100b56100d9366004611bdb565b610395565b6100b56100ec366004611ba9565b61069a565b6100b56100ff366004611b77565b6107b1565b6100b5610112366004611a3e565b610875565b6100b5610125366004611b77565b610b34565b6100b5610138366004611c0d565b610e23565b6100b561014b366004611b23565b610f2d565b6100b561015e366004611b45565b61104a565b604080516002808252606082810190935260009190816020015b606081526020019060019003908161017d57505060405163376ce61960e21b815290915073__JsonUtils_____________________________9063ddb39864906101cb908790600401611ec5565b60006040518083038186803b1580156101e357600080fd5b505af41580156101f7573d6000803e3d6000fd5b505050506040513d6000823e601f3d908101601f1916820160405261021f919081019061196c565b8160008151811061024057634e487b7160e01b600052603260045260246000fd5b602090810291909101015260405163376ce61960e21b815273__JsonUtils_____________________________9063ddb3986490610282908690600401611f56565b60006040518083038186803b15801561029a57600080fd5b505af41580156102ae573d6000803e3d6000fd5b505050506040513d6000823e601f3d908101601f191682016040526102d6919081019061196c565b816001815181106102f757634e487b7160e01b600052603260045260246000fd5b602090810291909101015260405163b82c23e560e01b815273__JsonUtils_____________________________9063b82c23e590610339908490600401611ddb565b60006040518083038186803b15801561035157600080fd5b505af4158015610365573d6000803e3d6000fd5b505050506040513d6000823e601f3d908101601f1916820160405261038d919081019061196c565b949350505050565b60408051600480825260a0820190925260609160009190816020015b60608152602001906001900390816103b15790505090506103fd60405180604001604052806006815260200165373ab6b132b960d11b8152506100b0856060015163ffffffff16611342565b8160008151811061041e57634e487b7160e01b600052603260045260246000fd5b602002602001018190525061047a6040518060400160405280600981526020016863617264205479706560b81b8152506100b08560800151600281111561047557634e487b7160e01b600052602160045260246000fd5b611342565b8160018151811061049b57634e487b7160e01b600052603260045260246000fd5b60200260200101819052506104d96040518060400160405280600d81526020016c636172642043617465676f727960981b8152508460a00151610163565b816002815181106104fa57634e487b7160e01b600052603260045260246000fd5b60200260200101819052506105da6040518060400160405280600b81526020016a636172642052617269747960a81b8152508460c00151600581111561055057634e487b7160e01b600052602160045260246000fd5b604051632211605560e11b815273__StringUtils___________________________91634422c0aa916105869190600401611df9565b60006040518083038186803b15801561059e57600080fd5b505af41580156105b2573d6000803e3d6000fd5b505050506040513d6000823e601f3d908101601f191682016040526100b0919081019061196c565b816003815181106105fb57634e487b7160e01b600052603260045260246000fd5b602090810291909101015260405163aeb518cb60e01b815273__JsonUtils_____________________________9063aeb518cb9061063d908490600401611ddb565b60006040518083038186803b15801561065557600080fd5b505af4158015610669573d6000803e3d6000fd5b505050506040513d6000823e601f3d908101601f19168201604052610691919081019061196c565b9150505b919050565b604080516002808252606082810190935260009190816020015b60608152602001906001900390816106b45750506040805180820190915260098152681bdddb995c955d5a5960ba1b602082015284519192506106f691610163565b8160008151811061071757634e487b7160e01b600052603260045260246000fd5b60200260200101819052506107906040518060400160405280600c81526020016b6f776e65724164647265737360a01b81525084602001516001600160a01b031673__StringUtils___________________________6356ca623e90916040518263ffffffff1660e01b81526004016105869190611dc7565b816001815181106105fb57634e487b7160e01b600052603260045260246000fd5b604080516002808252606082810190935260009190816020015b60608152602001906001900390816107cb5790505090506108136040518060400160405280600b81526020016a34b6363ab9ba3930ba37b960a91b8152508460600151610163565b8160008151811061083457634e487b7160e01b600052603260045260246000fd5b6020026020010181905250610790604051806040016040528060078152602001663b32b939b4b7b760c91b8152506100b0856040015163ffffffff16611342565b60408051600580825260c0820190925260609160009190816020015b606081526020019060019003908161089157505083519091506108b390610395565b816000815181106108d457634e487b7160e01b600052603260045260246000fd5b60200260200101819052506108ec83602001516107b1565b8160018151811061090d57634e487b7160e01b600052603260045260246000fd5b60200260200101819052506109258360600151610f2d565b8160028151811061094657634e487b7160e01b600052603260045260246000fd5b602002602001018190525061095e836040015161069a565b8160038151811061097f57634e487b7160e01b600052603260045260246000fd5b6020026020010181905250610997836080015161104a565b816004815181106109b857634e487b7160e01b600052603260045260246000fd5b6020026020010181905250610b0d73__JsonUtils_____________________________6389c19ddb6109ed8660200151610b34565b60405163377d5fe360e01b815273__JsonUtils_____________________________9063377d5fe390610a24908890600401611f85565b60006040518083038186803b158015610a3c57600080fd5b505af4158015610a50573d6000803e3d6000fd5b505050506040513d6000823e601f3d908101601f19168201604052610a78919081019061196c565b6040518363ffffffff1660e01b8152600401610a95929190611e34565b60006040518083038186803b158015610aad57600080fd5b505af4158015610ac1573d6000803e3d6000fd5b505050506040513d6000823e601f3d908101601f19168201604052610ae9919081019061196c565b604051602001610af99190611d4e565b60405160208183030381529060405261145c565b604051602001610b1d9190611d82565b604051602081830303815290604052915050919050565b60408051600480825260a0820190925260609160009190816020015b6060815260200190600190039081610b50575050835160405163376ce61960e21b815291925073__JsonUtils_____________________________9163ddb3986491610b9e91600401611ef9565b60006040518083038186803b158015610bb657600080fd5b505af4158015610bca573d6000803e3d6000fd5b505050506040513d6000823e601f3d908101601f19168201604052610bf2919081019061196c565b81600081518110610c1357634e487b7160e01b600052603260045260246000fd5b602002602001018190525073__JsonUtils_____________________________63ddb3986484602001516040518263ffffffff1660e01b8152600401610c599190611e90565b60006040518083038186803b158015610c7157600080fd5b505af4158015610c85573d6000803e3d6000fd5b505050506040513d6000823e601f3d908101601f19168201604052610cad919081019061196c565b81600181518110610cce57634e487b7160e01b600052603260045260246000fd5b6020908102919091010152608083015160405163376ce61960e21b815273__JsonUtils_____________________________9163ddb3986491610d149190600401611f27565b60006040518083038186803b158015610d2c57600080fd5b505af4158015610d40573d6000803e3d6000fd5b505050506040513d6000823e601f3d908101601f19168201604052610d68919081019061196c565b81600281518110610d8957634e487b7160e01b600052603260045260246000fd5b6020908102919091010152608083015160405163376ce61960e21b815273__JsonUtils_____________________________9163ddb3986491610dcf9190600401611e59565b60006040518083038186803b158015610de757600080fd5b505af4158015610dfb573d6000803e3d6000fd5b505050506040513d6000823e601f3d908101601f191682016040526105da919081019061196c565b60408051600480825260a0820190925260609160009190816020015b6060815260200190600190039081610e3f5750508351909150610e6190610395565b81600081518110610e8257634e487b7160e01b600052603260045260246000fd5b6020026020010181905250610e9a83602001516107b1565b81600181518110610ebb57634e487b7160e01b600052603260045260246000fd5b6020026020010181905250610ed38360600151610f2d565b81600281518110610ef457634e487b7160e01b600052603260045260246000fd5b6020026020010181905250610f0c836040015161069a565b816003815181106109b857634e487b7160e01b600052603260045260246000fd5b604080516002808252606082810190935260009190816020015b6060815260200190600190039081610f47575050604080518082018252600b81526a616c7465726e617469766560a81b6020820152855191516338ee73ed60e11b8152929350610fbf92909173__StringUtils___________________________916371dce7da916105869190151590600401611dee565b81600081518110610fe057634e487b7160e01b600052603260045260246000fd5b602002602001018190525061079060405180604001604052806004815260200163199bda5b60e21b8152508460200151151573__StringUtils___________________________6371dce7da90916040518263ffffffff1660e01b81526004016105869190611dee565b604080516007808252610100820190925260609160009190816020015b606081526020019060019003908161106757505060408051808201909152600c81526b18d85c9908115b195b595b9d60a21b602082015284519192506110ac91610163565b816000815181106110cd57634e487b7160e01b600052603260045260246000fd5b60200260200101819052506111096040518060400160405280600b81526020016a31b0b9321027b934b3b4b760a91b8152508460200151610163565b8160018151811061112a57634e487b7160e01b600052603260045260246000fd5b60200260200101819052506111676040518060400160405280600c81526020016b31b0b932102330b1ba34b7b760a11b8152508460400151610163565b8160028151811061118857634e487b7160e01b600052603260045260246000fd5b60200260200101819052506111cc6040518060400160405280600a8152602001693130b9b2902837bbb2b960b11b8152506100b0856060015163ffffffff16611342565b816003815181106111ed57634e487b7160e01b600052603260045260246000fd5b602002602001018190525061122d604051806040016040528060098152602001681c1bdd195b9d1a585b60ba1b8152506100b0856080015160ff16611342565b8160048151811061124e57634e487b7160e01b600052603260045260246000fd5b60200260200101819052506112896040518060400160405280600481526020016372616e6b60e01b8152506100b08560a0015160ff16611342565b816005815181106112aa57634e487b7160e01b600052603260045260246000fd5b602002602001018190525061132160405180604001604052806011815260200170616c7465726e617469766520436f6d626f60781b8152508460c00151151573__StringUtils___________________________6371dce7da90916040518263ffffffff1660e01b81526004016105869190611dee565b816006815181106105fb57634e487b7160e01b600052603260045260246000fd5b60608161136757506040805180820190915260018152600360fc1b6020820152610695565b8160005b8115611391578061137b816120a2565b915061138a9050600a83612028565b915061136b565b6000816001600160401b038111156113b957634e487b7160e01b600052604160045260246000fd5b6040519080825280601f01601f1916602001820160405280156113e3576020820181803683370190505b5090505b841561038d576113f860018361205b565b9150611405600a866120bd565b611410906030612010565b60f81b81838151811061143357634e487b7160e01b600052603260045260246000fd5b60200101906001600160f81b031916908160001a905350611455600a86612028565b94506113e7565b606081516000141561147d5750604080516020810190915260008152610695565b600060405180606001604052806040815260200161211460409139905060006003845160026114ac9190612010565b6114b69190612028565b6114c190600461203c565b6001600160401b038111156114e657634e487b7160e01b600052604160045260246000fd5b6040519080825280601f01601f191660200182016040528015611510576020820181803683370190505b509050600182016020820185865187015b8082101561157c576003820191508151603f8160121c168501518453600184019350603f81600c1c168501518453600184019350603f8160061c168501518453600184019350603f8116850151845350600183019250611521565b505060038651066001811461159857600281146115ab576115b3565b603d6001830353603d60028303536115b3565b603d60018303535b509195945050505050565b8035801515811461069557600080fd5b80356006811061069557600080fd5b80356003811061069557600080fd5b600082601f8301126115fc578081fd5b813561160f61160a82611fe9565b611fb9565b818152846020838601011115611623578283fd5b816020850160208301379081016020019190915292915050565b60006040828403121561164e578081fd5b6116586040611fb9565b9050611663826115be565b8152611671602083016115be565b602082015292915050565b600060e0828403121561168d578081fd5b61169760e0611fb9565b905081356001600160401b03808211156116b057600080fd5b6116bc858386016115ec565b835260208401359150808211156116d257600080fd5b6116de858386016115ec565b602084015260408401359150808211156116f757600080fd5b50611704848285016115ec565b60408301525061171660608301611947565b60608201526117276080830161195b565b608082015261173860a0830161195b565b60a082015261174960c083016115be565b60c082015292915050565b600060a08284031215611765578081fd5b61176f60a0611fb9565b905081356001600160401b038082111561178857600080fd5b611794858386016115ec565b835260208401359150808211156117aa57600080fd5b6117b6858386016115ec565b60208401526117c760408501611947565b604084015260608401359150808211156117e057600080fd5b6117ec858386016115ec565b6060840152608084013591508082111561180557600080fd5b50611812848285016115ec565b60808301525092915050565b60006040828403121561182f578081fd5b6118396040611fb9565b905081356001600160401b0381111561185157600080fd5b61185d848285016115ec565b82525060208201356001600160a01b038116811461167157600080fd5b600060e0828403121561188b578081fd5b61189560e0611fb9565b905081356001600160401b03808211156118ae57600080fd5b6118ba858386016115ec565b835260208401359150808211156118d057600080fd5b6118dc858386016115ec565b60208401526118ed60408501611947565b60408401526118fe60608501611947565b606084015261190f608085016115dd565b608084015260a084013591508082111561192857600080fd5b50611935848285016115ec565b60a08301525061174960c083016115ce565b803563ffffffff8116811461069557600080fd5b803560ff8116811461069557600080fd5b60006020828403121561197d578081fd5b81516001600160401b03811115611992578182fd5b8201601f810184136119a2578182fd5b80516119b061160a82611fe9565b8181528560208385010111156119c4578384fd5b6119d5826020830160208601612072565b95945050505050565b600080604083850312156119f0578081fd5b82356001600160401b0380821115611a06578283fd5b611a12868387016115ec565b93506020850135915080821115611a27578283fd5b50611a34858286016115ec565b9150509250929050565b600060208284031215611a4f578081fd5b81356001600160401b0380821115611a65578283fd5b9083019060c08286031215611a78578283fd5b611a8260a0611fb9565b823582811115611a90578485fd5b611a9c8782860161187a565b825250602083013582811115611ab0578485fd5b611abc87828601611754565b602083015250604083013582811115611ad3578485fd5b611adf8782860161181e565b604083015250611af2866060850161163d565b606082015260a083013582811115611b08578485fd5b611b148782860161167c565b60808301525095945050505050565b600060408284031215611b34578081fd5b611b3e838361163d565b9392505050565b600060208284031215611b56578081fd5b81356001600160401b03811115611b6b578182fd5b61038d8482850161167c565b600060208284031215611b88578081fd5b81356001600160401b03811115611b9d578182fd5b61038d84828501611754565b600060208284031215611bba578081fd5b81356001600160401b03811115611bcf578182fd5b61038d8482850161181e565b600060208284031215611bec578081fd5b81356001600160401b03811115611c01578182fd5b61038d8482850161187a565b600060208284031215611c1e578081fd5b81356001600160401b0380821115611c34578283fd5b9083019060a08286031215611c47578283fd5b611c516080611fb9565b823582811115611c5f578485fd5b611c6b8782860161187a565b825250602083013582811115611c7f578485fd5b611c8b87828601611754565b602083015250604083013582811115611ca2578485fd5b611cae8782860161181e565b604083015250611cc1866060850161163d565b606082015295945050505050565b6000815180845260208085018081965082840281019150828601855b85811015611d15578284038952611d03848351611d22565b98850198935090840190600101611ceb565b5091979650505050505050565b60008151808452611d3a816020860160208601612072565b601f01601f19169290920160200192915050565b6000607b60f81b82528251611d6a816001850160208701612072565b607d60f81b6001939091019283015250600201919050565b60007f646174613a6170706c69636174696f6e2f6a736f6e3b6261736536342c00000082528251611dba81601d850160208701612072565b91909101601d0192915050565b6001600160a01b0391909116815260200190565b600060208252611b3e6020830184611ccf565b901515815260200190565b6020810160068310611e1b57634e487b7160e01b600052602160045260246000fd5b91905290565b600060208252611b3e6020830184611d22565b600060408252611e476040830185611d22565b82810360208401526119d58185611d22565b600060408252600d60408301526c185b9a5b585d1a5bdb97dd5c9b609a1b606083015260806020830152611b3e6080830184611d22565b600060408252600b60408301526a3232b9b1b934b83a34b7b760a91b606083015260806020830152611b3e6080830184611d22565b600060408252600a60408301526974726169745f7479706560b01b606083015260806020830152611b3e6080830184611d22565b60006040825260046040830152636e616d6560e01b606083015260806020830152611b3e6080830184611d22565b6000604082526005604083015264696d61676560d81b606083015260806020830152611b3e6080830184611d22565b600060408252600560408301526476616c756560d81b606083015260806020830152611b3e6080830184611d22565b600060408252600a6040830152696174747269627574657360b01b606083015260806020830152611b3e6080830184611ccf565b604051601f8201601f191681016001600160401b0381118282101715611fe157611fe16120fd565b604052919050565b60006001600160401b03821115612002576120026120fd565b50601f01601f191660200190565b60008219821115612023576120236120d1565b500190565b600082612037576120376120e7565b500490565b6000816000190483118215151615612056576120566120d1565b500290565b60008282101561206d5761206d6120d1565b500390565b60005b8381101561208d578181015183820152602001612075565b8381111561209c576000848401525b50505050565b60006000198214156120b6576120b66120d1565b5060010190565b6000826120cc576120cc6120e7565b500690565b634e487b7160e01b600052601160045260246000fd5b634e487b7160e01b600052601260045260246000fd5b634e487b7160e01b600052604160045260246000fdfe4142434445464748494a4b4c4d4e4f505152535455565758595a6162636465666768696a6b6c6d6e6f707172737475767778797a303132333435363738392b2fa26469706673582212206d4056d7081c48729064509936aee8594cc03e9a8c162d3ab2388cd65db96c5e64736f6c63430008010033",
  "immutableReferences": {},
  "source": "// SPDX-License-Identifier: MIT\r\n\r\npragma solidity 0.8.1;\r\n\r\nimport \"@openzeppelin/contracts/token/ERC721/ERC721.sol\";\r\nimport \"@openzeppelin/contracts/utils/Counters.sol\";\r\nimport \"@openzeppelin/contracts/utils/Base64.sol\";\r\nimport \"@openzeppelin/contracts/access/Ownable.sol\";\r\nimport \"@openzeppelin/contracts/utils/Strings.sol\";\r\nimport \"@openzeppelin/contracts/access/AccessControl.sol\";\r\nimport \"@openzeppelin/contracts/security/ReentrancyGuard.sol\";\r\n\r\ncontract CardContract is ERC721, Ownable {\r\n\r\n    using Counters for Counters.Counter;\r\n    using Base64 for bytes;\r\n    using CardUtils for CardUtils.NormalCard;\r\n    using CardUtils for CardUtils.BattleCard;\r\n    mapping(uint256 => CardUtils.Card) public CARDS;\r\n    \r\n    //TIPI DI CARTE\r\n    mapping(uint256 => uint256) public UNCOMMON;\r\n    mapping(uint256 => uint256) public COMMON;\r\n    mapping(uint256 => uint256) public RARE;\r\n    mapping(uint256 => uint256) public ULTRA_RARE;\r\n    mapping(uint256 => uint256) public MYTHIC;\r\n    mapping(uint256 => CardUtils.NormalCard) public normalCard;\r\n    mapping(uint256 => CardUtils.BattleCard) public battleCard;\r\n    mapping(uint256 => CardUtils.CardType) private cardTypes;\r\n\r\n    Counters.Counter private _tokenCounter;\r\n    constructor() ERC721(\"CTA\", \"Season 1\") {\r\n      mintCard(\r\n            CardUtils.CardType.Battle,\r\n            CardUtils.Card(\r\n            \"1111\",\r\n            \"1111\",\r\n            1,\r\n            1,\r\n            CardUtils.CardType.Battle,\r\n            \"Good\",\r\n            CardUtils.CardRarity.Common\r\n        ),\r\n        CardUtils.CardInfo(\r\n            \"Shado\",\r\n            \"Shado\",\r\n            1,\r\n            \"J\",\r\n            \"G\"\r\n        ), CardUtils.CardOwner(\r\n            \"345\",\r\n            0x7D93107852454857C511b0c1E590b59B4cE34758\r\n        ), CardUtils.CardAttr(\r\n            false,\r\n            false\r\n        ), CardUtils.CardExtra(\r\n            \"Fire\",\r\n            \"Arkanthe\",\r\n            \"A\",\r\n            2,\r\n            2,\r\n            4,\r\n            false\r\n        ) );\r\n\r\n            mintCard(\r\n            CardUtils.CardType.Battle,\r\n            CardUtils.Card(\r\n            \"2222\",\r\n            \"2222\",\r\n            1,\r\n            1,\r\n            CardUtils.CardType.Battle,\r\n            \"Good\",\r\n            CardUtils.CardRarity.Mythic\r\n        ),\r\n        CardUtils.CardInfo(\r\n            \"Shado\",\r\n            \"Shado\",\r\n            2,\r\n            \"J\",\r\n            \"G\"\r\n        ), CardUtils.CardOwner(\r\n            \"345\",\r\n            0x7D93107852454857C511b0c1E590b59B4cE34758\r\n        ), CardUtils.CardAttr(\r\n            false,\r\n            false\r\n        ), CardUtils.CardExtra(\r\n            \"Fire\",\r\n            \"Arkanthe\",\r\n            \"A\",\r\n            2,\r\n            2,\r\n            4,\r\n            false\r\n        ) );\r\n\r\n        mintCard(\r\n            CardUtils.CardType.Battle,\r\n            CardUtils.Card(\r\n            \"3333\",\r\n            \"3333\",\r\n            1,\r\n            1,\r\n            CardUtils.CardType.Battle,\r\n            \"Good\",\r\n            CardUtils.CardRarity.Mythic\r\n        ),\r\n        CardUtils.CardInfo(\r\n            \"Shado\",\r\n            \"Shado\",\r\n            3,\r\n            \"J\",\r\n            \"G\"\r\n        ), CardUtils.CardOwner(\r\n            \"345\",\r\n            0x7D93107852454857C511b0c1E590b59B4cE34758\r\n        ), CardUtils.CardAttr(\r\n            false,\r\n            false\r\n        ), CardUtils.CardExtra(\r\n            \"Fire\",\r\n            \"Arkanthe\",\r\n            \"A\",\r\n            2,\r\n            2,\r\n            4,\r\n            false\r\n        ) );\r\n      \r\n    }\r\n\r\n    fallback() external payable {}\r\n    receive() external payable {}  \r\n    event MergeCard(uint256 indexed tokenId, uint256[] burnedTokenId);\r\n    event MintCard(address indexed sender, uint256 indexed tokenId, CardUtils.CardType typeOfCard, CardUtils.Card base, CardUtils.CardInfo info, CardUtils.CardOwner owner, CardUtils.CardAttr attr, CardUtils.CardExtra extra);\r\n    event UpdateCard(uint256 indexed tokenId, CardUtils.CardType typeOfCard, CardUtils.Card base, CardUtils.CardInfo info,  CardUtils.CardOwner owner, CardUtils.CardAttr attr, CardUtils.CardExtra extra);\r\n    event BurnToken(address indexed sender, uint256  indexed tokenId);\r\n    event transferNft(address indexed from, address indexed to, uint256 indexed tokenId);\r\n    event RegisterMarketPlace(address indexed marketPlaceApprover, bool isApproved);\r\n    function tokenURI(uint256 tokenId) public override view returns(string memory) {\r\n        require(cardTypes[tokenId] != CardUtils.CardType.None, \"Card does not exists\");\r\n        if (cardTypes[tokenId] == CardUtils.CardType.Battle)\r\n            return battleCard[tokenId].toTokenURI();\r\n        return normalCard[tokenId].toTokenURI();        \r\n    }\r\n\r\n    function mergeCard(uint256 tokenId,uint256[] memory burnedTokenId) public returns(uint256){\r\n        //update \"medias\"\r\n        //the card that transforms, has the image in the medias, based on what it transforms\r\n        //madias ->  struct of struct, because if it is an alternative coombo, you don't know which one you have to transform with\r\n\r\n        uint256 len = burnedTokenId.length;\r\n\r\n        for(uint i=0; i<len;i++){\r\n\r\n            burnToken(burnedTokenId[i]);\r\n        }\r\n\r\n        CardUtils.CardType cardTypes = cardTypes[tokenId];\r\n\r\n        //DO YOU DO THE MARGE ONLY OF THE BATTLE? WHY IF THIS WOULD NOT BE USED\r\n        if (cardTypes == CardUtils.CardType.Battle) {\r\n            CardUtils.BattleCard memory card = battleCard[tokenId];\r\n        } else {\r\n            CardUtils.NormalCard memory card = normalCard[tokenId];\r\n        }\r\n\r\n        //to manage the media field, it is an array of arrays and you should select which ones to insert in the image which is then put in the URI token\r\n        //************************** */\r\n        // what if we did it with a FLAG? frag indicating the number of \"medias\" to be selected, this flag is set both when minta and when marge\r\n\r\n        emit MergeCard(tokenId, burnedTokenId);\r\n        return tokenId;\r\n    }\r\n\r\n    function mintCard(\r\n        CardUtils.CardType typeOfCard,\r\n        CardUtils.Card memory base,\r\n        CardUtils.CardInfo memory info,\r\n        CardUtils.CardOwner memory owner,\r\n        CardUtils.CardAttr memory attr,\r\n        CardUtils.CardExtra memory extra\r\n    ) public {\r\n        require(typeOfCard != CardUtils.CardType.None, \"Card type is not valid\");\r\n\r\n        uint256 newTokenId = _tokenCounter.current();\r\n\r\n        if (base.rarity == CardUtils.CardRarity.Uncommon)\r\n            UNCOMMON[newTokenId] = newTokenId;\r\n        else if(base.rarity == CardUtils.CardRarity.Common)\r\n            COMMON[newTokenId] = newTokenId;\r\n        else if(base.rarity == CardUtils.CardRarity.Rare)\r\n            RARE[newTokenId] = newTokenId;\r\n        else if(base.rarity == CardUtils.CardRarity.UltraRare)\r\n            ULTRA_RARE[newTokenId] = newTokenId;\r\n        else if(base.rarity == CardUtils.CardRarity.Mythic)\r\n            MYTHIC[newTokenId] = newTokenId;\r\n        \r\n        cardTypes[newTokenId] = typeOfCard;\r\n\r\n        if (typeOfCard == CardUtils.CardType.Battle) {\r\n            battleCard[newTokenId] = CardUtils.BattleCard(base, info, owner, attr, extra);\r\n        } else {\r\n            normalCard[newTokenId] = CardUtils.NormalCard(base, info, owner, attr);\r\n        }\r\n        \r\n        _tokenCounter.increment();\r\n\r\n        _safeMint(msg.sender, newTokenId);\r\n\r\n        CARDS[newTokenId] = base;\r\n\r\n        emit MintCard(msg.sender, newTokenId, typeOfCard, base, info, owner, attr, extra);\r\n    }\r\n\r\n    function registerMarketPlace(address marketPlace) public {\r\n        setApprovalForAll(marketPlace, true);\r\n         emit RegisterMarketPlace(marketPlace, true);\r\n    }\r\n\r\n   //TODO: it would be to reassign name, description, etc., with the variables I already have, and not what they pass to me\r\n   //       so at least I don't risk running into mistakes\r\n\r\n    function updateCard(\r\n    uint256 tokenId,\r\n    CardUtils.Card memory base,\r\n    CardUtils.CardInfo memory info,\r\n    CardUtils.CardOwner memory owner,\r\n    CardUtils.CardAttr memory attr,\r\n    CardUtils.CardExtra memory extra\r\n    ) public{\r\n        CardUtils.CardType typeOfCard = cardTypes[tokenId];\r\n        require(typeOfCard != CardUtils.CardType.None, \"Card not exists\");\r\n\r\n        if (typeOfCard == CardUtils.CardType.Battle) {\r\n\r\n            CardUtils.BattleCard memory card = battleCard[tokenId];\r\n        \r\n            card.base = base;\r\n            card.info = info;\r\n            card.owner = owner;\r\n            card.attr = attr;\r\n            card.extra = extra;\r\n\r\n            card.base.cardType = typeOfCard;\r\n            battleCard[tokenId] = card;\r\n        } else {\r\n\r\n            CardUtils.NormalCard memory card = normalCard[tokenId];\r\n\r\n            card.base = base;\r\n            card.info = info;\r\n            card.owner = owner;\r\n            card.attr = attr;\r\n\r\n            card.base.cardType = typeOfCard;\r\n            normalCard[tokenId] = card;\r\n        }\r\n        emit UpdateCard(tokenId, typeOfCard, base, info,  owner, attr, extra);\r\n    }\r\n\r\n    //BURN\r\n    function burnToken(uint256 tokenId) public {\r\n        _burn(tokenId);\r\n        emit BurnToken(msg.sender, tokenId);\r\n    }\r\n\r\n    //TRANSFER\r\n    function TransferNft(address from, address to, uint256 tokenId) public{\r\n        safeTransferFrom(from, to, tokenId);\r\n        emit transferNft(from, to, tokenId);\r\n    }\r\n\r\n}\r\n\r\nlibrary JsonUtils {\r\n    using StringUtils for string;\r\n\r\n    function concat(string memory str1, string memory str2, string memory str3) public pure returns (string memory) {\r\n        return str1.concat(\",\").concat(str2).concat(\",\").concat(str3);\r\n    }\r\n\r\n    function concat(string memory str1, string memory str2) public pure returns (string memory) {\r\n        return str1.concat(\",\").concat(str2);\r\n    }\r\n\r\n    function concat(string[] memory components) public pure returns (string memory) {\r\n        string memory _final = \"\";\r\n        uint256 len = components.length;\r\n        for (uint256 i = 0; i < len; i++) {\r\n            _final = _final.concat(components[i]).concat((i + 1 < len ? \",\" : \"\"));\r\n        }\r\n        return _final;\r\n    }\r\n\r\n    function makeKeyPair(string memory key, string memory value) public pure returns (string memory) {\r\n        return string(\"\\\"\").concat(key).concat(\"\\\":\\\"\").concat(value).concat(\"\\\"\");\r\n    }\r\n\r\n    function makeObject(string[] memory keyPairs) public pure returns (string memory) {\r\n        return string(\"{\").concat(concat(keyPairs)).concat(\"}\");\r\n    }\r\n\r\n    function makeArray(string memory key, string[] memory values) public pure returns (string memory) {\r\n        return string(\"\\\"\").concat(key).concat(\"\\\":[\").concat(concat(values)).concat(\"]\");\r\n    }\r\n}\r\n\r\nlibrary CardUtils {\r\n    using Base64 for bytes;\r\n    using Strings for uint;\r\n    using Strings for uint8;\r\n    using Strings for uint32;\r\n    using Strings for uint256;\r\n    using StringUtils for bool;\r\n    using StringUtils for address;\r\n    using StringUtils for CardRarity;\r\n\r\n    enum CardRarity { None, Uncommon, Common, Rare, UltraRare, Mythic }\r\n    enum CardType { None, Normal, Battle }\r\n\r\n    struct Card {\r\n        string uuid;\r\n        string id;\r\n        uint32 baseId;\r\n        uint32 number;\r\n        CardUtils.CardType cardType;\r\n        string category;\r\n        CardUtils.CardRarity rarity;\r\n    }\r\n    struct CardInfo {\r\n        string name;\r\n        string description; \r\n        uint32 version;\r\n        string illustrator; \r\n        string medias; \r\n    }\r\n    struct CardAttr {\r\n        bool alternative;\r\n        bool foil; \r\n    }\r\n    struct CardOwner {\r\n        string uuid;\r\n        address owner;\r\n    }\r\n    struct CardExtra {\r\n        string element;\r\n        string origin;\r\n        string faction;\r\n        uint32 basePower;\r\n        uint8 potential;\r\n        uint8 rank;\r\n        bool alternativeCombo;\r\n    }\r\n    struct NormalCard {\r\n        Card base;\r\n        CardInfo info;\r\n        CardOwner owner;\r\n        CardAttr attr;\r\n    }\r\n    struct BattleCard {\r\n        Card base;\r\n        CardInfo info;\r\n        CardOwner owner;\r\n        CardAttr attr;\r\n        CardExtra extra;\r\n    }\r\n\r\n    function toTokenURI(NormalCard memory self)\r\n        public pure returns (string memory)\r\n    {\r\n        string[] memory attributes = new string[](4);\r\n        attributes[0] = baseJson(self.base);\r\n        attributes[1] = infoJson(self.info);\r\n        attributes[2] = attrJson(self.attr);\r\n        attributes[3] = ownerJson(self.owner);\r\n\r\n        return string(\r\n            abi.encodePacked(\r\n                \"data:application/json;base64,\",\r\n                abi.encodePacked(\"{\",\r\n                    JsonUtils.concat(\r\n                        headerJson(self.info),\r\n                        JsonUtils.makeArray(\"attributes\", attributes)\r\n                    ),\r\n                \"}\").encode()\r\n            )           \r\n        );\r\n    }\r\n\r\n    function toTokenURI(BattleCard memory self)\r\n        public pure returns (string memory)\r\n    {\r\n        string[] memory attributes = new string[](5);\r\n        attributes[0] = baseJson(self.base);\r\n        attributes[1] = infoJson(self.info);\r\n        attributes[2] = attrJson(self.attr);\r\n        attributes[3] = ownerJson(self.owner);\r\n        attributes[4] = extraJson(self.extra);\r\n\r\n        return string(\r\n            abi.encodePacked(\r\n                \"data:application/json;base64,\",\r\n                abi.encodePacked(\"{\",\r\n                    JsonUtils.concat(\r\n                        headerJson(self.info),\r\n                        JsonUtils.makeArray(\"attributes\", attributes)\r\n                    ),\r\n                \"}\").encode()\r\n            )\r\n        );\r\n    }\r\n\r\n    function attributeTraitType(string memory traitType, string memory traitValue)\r\n        public pure returns (string memory)\r\n    {\r\n        string[] memory keyPairs = new string[](2);\r\n        keyPairs[0] = JsonUtils.makeKeyPair(\"trait_type\", traitType);\r\n        keyPairs[1] = JsonUtils.makeKeyPair(\"value\", traitValue);\r\n        return JsonUtils.makeObject(keyPairs);\r\n    }\r\n\r\n    function headerJson(CardInfo memory self)\r\n        public pure returns (string memory)\r\n    {\r\n        string[] memory components = new string[](4);\r\n        components[0] = JsonUtils.makeKeyPair(\"name\", self.name);\r\n        components[1] = JsonUtils.makeKeyPair(\"description\", self.description);\r\n        components[2] = JsonUtils.makeKeyPair(\"image\", self.medias);\r\n        components[3] = JsonUtils.makeKeyPair(\"animation_url\", self.medias);\r\n        return JsonUtils.concat(components);\r\n    }\r\n\r\n    function infoJson(CardInfo memory self)\r\n        public pure returns (string memory)\r\n    {\r\n        string[] memory components = new string[](2);\r\n        components[0] = attributeTraitType(\"illustrator\", self.illustrator);\r\n        components[1] = attributeTraitType(\"version\", self.version.toString());\r\n        return JsonUtils.concat(components);\r\n    }\r\n\r\n    function attrJson(CardAttr memory self)\r\n        public pure returns (string memory)\r\n    {\r\n        string[] memory components = new string[](2);\r\n        components[0] = attributeTraitType(\"alternative\", self.alternative.toString());\r\n        components[1] = attributeTraitType(\"foil\", self.foil.toString());\r\n        return JsonUtils.concat(components);\r\n    }\r\n\r\n    function extraJson(CardExtra memory self)\r\n        public pure returns (string memory)\r\n    {\r\n        string[] memory components = new string[](7);\r\n        components[0] = attributeTraitType(\"card Element\", self.element);\r\n        components[1] = attributeTraitType(\"card Origin\", self.origin);\r\n        components[2] = attributeTraitType(\"card Faction\", self.faction);\r\n        components[3] = attributeTraitType(\"base Power\", self.basePower.toString());\r\n        components[4] = attributeTraitType(\"potential\", self.potential.toString());\r\n        components[5] = attributeTraitType(\"rank\", self.rank.toString());\r\n        components[6] = attributeTraitType(\"alternative Combo\", self.alternativeCombo.toString());\r\n        return JsonUtils.concat(components);\r\n    }\r\n\r\n    function ownerJson(CardOwner memory self)\r\n        public pure returns (string memory)\r\n    {\r\n        string[] memory components = new string[](2);\r\n        components[0] = attributeTraitType(\"ownerUuid\", self.uuid);\r\n        components[1] = attributeTraitType(\"ownerAddress\", self.owner.toString());\r\n        return JsonUtils.concat(components);\r\n    }\r\n\r\n    function baseJson(Card memory self)\r\n        public pure returns (string memory)\r\n    {\r\n        string[] memory components = new string[](4);\r\n        components[0] = attributeTraitType(\"number\", self.number.toString());\r\n        components[1] = attributeTraitType(\"card Type\", uint(self.cardType).toString());\r\n        components[2] = attributeTraitType(\"card Category\", self.category);\r\n        components[3] = attributeTraitType(\"card Rarity\", self.rarity.toString());\r\n        return JsonUtils.concat(components);\r\n    }\r\n}\r\n\r\nlibrary StringUtils {\r\n\r\n    function toString(bool self) public pure returns (string memory) {\r\n        return (self) ? \"true\" : \"false\";\r\n    }\r\n\r\n    function compareStrings(string memory a, string memory b) internal pure returns (bool) {\r\n        return (keccak256(abi.encodePacked((a))) == keccak256(abi.encodePacked((b))));\r\n    }\r\n\r\n    function toString(address self) public pure returns (string memory) {\r\n        return Strings.toHexString(uint160(self), 20);\r\n    }\r\n\r\n    function toString(CardUtils.CardRarity self) public pure returns (string memory) {\r\n        if (self == CardUtils.CardRarity.Uncommon) {\r\n            return \"Uncommon\";\r\n        } else if (self == CardUtils.CardRarity.Common) {\r\n            return \"Common\";\r\n        } else if (self == CardUtils.CardRarity.Rare) {\r\n            return \"Rare\";\r\n        } else if (self == CardUtils.CardRarity.UltraRare) {\r\n            return \"UltraRare\";\r\n        } else if (self == CardUtils.CardRarity.Mythic) {\r\n            return \"Mythic\";\r\n        } else {\r\n            return \"None\";\r\n        }\r\n    }\r\n\r\n    function concat(string memory self, string memory concatenation) public pure returns (string memory) {\r\n        return string(abi.encodePacked(self, concatenation));\r\n    }\r\n}\r\n",
  "sourcePath": "D:\\BlockchainDevelopments\\BCTS\\Original_BCTS_SmartContract\\contracts\\CardContract.sol",
  "compiler": {
    "name": "solc",
    "version": "0.8.1+commit.df193b15.Emscripten.clang"
  },
  "schemaVersion": "3.4.7",
  "updatedAt": "2022-05-26T06:52:01.364Z",
  "devdoc": {
    "kind": "dev",
    "methods": {},
    "version": 1
  },
  "userdoc": {
    "kind": "user",
    "methods": {},
    "version": 1
  }
}