{
  "contractName": "JsonUtils",
  "abi": [
    {
      "inputs": [
        {
          "internalType": "string",
          "name": "str1",
          "type": "string"
        },
        {
          "internalType": "string",
          "name": "str2",
          "type": "string"
        },
        {
          "internalType": "string",
          "name": "str3",
          "type": "string"
        }
      ],
      "name": "concat",
      "outputs": [
        {
          "internalType": "string",
          "name": "",
          "type": "string"
        }
      ],
      "stateMutability": "pure",
      "type": "function"
    },
    {
      "inputs": [
        {
          "internalType": "string",
          "name": "str1",
          "type": "string"
        },
        {
          "internalType": "string",
          "name": "str2",
          "type": "string"
        }
      ],
      "name": "concat",
      "outputs": [
        {
          "internalType": "string",
          "name": "",
          "type": "string"
        }
      ],
      "stateMutability": "pure",
      "type": "function"
    },
    {
      "inputs": [
        {
          "internalType": "string[]",
          "name": "components",
          "type": "string[]"
        }
      ],
      "name": "concat",
      "outputs": [
        {
          "internalType": "string",
          "name": "",
          "type": "string"
        }
      ],
      "stateMutability": "pure",
      "type": "function"
    },
    {
      "inputs": [
        {
          "internalType": "string",
          "name": "key",
          "type": "string"
        },
        {
          "internalType": "string",
          "name": "value",
          "type": "string"
        }
      ],
      "name": "makeKeyPair",
      "outputs": [
        {
          "internalType": "string",
          "name": "",
          "type": "string"
        }
      ],
      "stateMutability": "pure",
      "type": "function"
    },
    {
      "inputs": [
        {
          "internalType": "string[]",
          "name": "keyPairs",
          "type": "string[]"
        }
      ],
      "name": "makeObject",
      "outputs": [
        {
          "internalType": "string",
          "name": "",
          "type": "string"
        }
      ],
      "stateMutability": "pure",
      "type": "function"
    },
    {
      "inputs": [
        {
          "internalType": "string",
          "name": "key",
          "type": "string"
        },
        {
          "internalType": "string[]",
          "name": "values",
          "type": "string[]"
        }
      ],
      "name": "makeArray",
      "outputs": [
        {
          "internalType": "string",
          "name": "",
          "type": "string"
        }
      ],
      "stateMutability": "pure",
      "type": "function"
    }
  ],
  "bytecode": "0x6110b361003a600b82828239805160001a60731461002d57634e487b7160e01b600052600060045260246000fd5b30600052607381538281f3fe730000000000000000000000000000000000000000301460806040526004361061006c5760003560e01c8063377d5fe3146100715780634874e62d1461009a57806389c19ddb146100ad578063aeb518cb146100c0578063b82c23e5146100d3578063ddb39864146100e6575b600080fd5b61008461007f366004610cb0565b6100f9565b6040516100919190610e18565b60405180910390f35b6100846100a8366004610d68565b61034e565b6100846100bb366004610d11565b610586565b6100846100ce366004610c0a565b61064c565b6100846100e1366004610c0a565b61080c565b6100846100f4366004610d11565b61094e565b60408051808201825260018152601160f91b602082015290516389c19ddb60e01b815260609173__StringUtils___________________________916389c19ddb91610149918790600401610e2b565b60006040518083038186803b15801561016157600080fd5b505af4158015610175573d6000803e3d6000fd5b505050506040513d6000823e601f3d908101601f1916820160405261019d9190810190610c3d565b6040516389c19ddb60e01b815273__StringUtils___________________________916389c19ddb916101d39190600401610ef2565b60006040518083038186803b1580156101eb57600080fd5b505af41580156101ff573d6000803e3d6000fd5b505050506040513d6000823e601f3d908101601f191682016040526102279190810190610c3d565b73__StringUtils___________________________6389c19ddb909161024c8561064c565b6040518363ffffffff1660e01b8152600401610269929190610e2b565b60006040518083038186803b15801561028157600080fd5b505af4158015610295573d6000803e3d6000fd5b505050506040513d6000823e601f3d908101601f191682016040526102bd9190810190610c3d565b6040516389c19ddb60e01b815273__StringUtils___________________________916389c19ddb916102f39190600401610f5f565b60006040518083038186803b15801561030b57600080fd5b505af415801561031f573d6000803e3d6000fd5b505050506040513d6000823e601f3d908101601f191682016040526103479190810190610c3d565b9392505050565b6040516389c19ddb60e01b815260609073__StringUtils___________________________906389c19ddb90610388908790600401610e87565b60006040518083038186803b1580156103a057600080fd5b505af41580156103b4573d6000803e3d6000fd5b505050506040513d6000823e601f3d908101601f191682016040526103dc9190810190610c3d565b6040516389c19ddb60e01b815273__StringUtils___________________________916389c19ddb9161041491908790600401610e2b565b60006040518083038186803b15801561042c57600080fd5b505af4158015610440573d6000803e3d6000fd5b505050506040513d6000823e601f3d908101601f191682016040526104689190810190610c3d565b6040516389c19ddb60e01b815273__StringUtils___________________________916389c19ddb9161049e9190600401610e87565b60006040518083038186803b1580156104b657600080fd5b505af41580156104ca573d6000803e3d6000fd5b505050506040513d6000823e601f3d908101601f191682016040526104f29190810190610c3d565b6040516389c19ddb60e01b815273__StringUtils___________________________916389c19ddb9161052a91908690600401610e2b565b60006040518083038186803b15801561054257600080fd5b505af4158015610556573d6000803e3d6000fd5b505050506040513d6000823e601f3d908101601f1916820160405261057e9190810190610c3d565b949350505050565b6040516389c19ddb60e01b815260609073__StringUtils___________________________906389c19ddb906105c0908690600401610e87565b60006040518083038186803b1580156105d857600080fd5b505af41580156105ec573d6000803e3d6000fd5b505050506040513d6000823e601f3d908101601f191682016040526106149190810190610c3d565b6040516389c19ddb60e01b815273__StringUtils___________________________916389c19ddb916102f391908690600401610e2b565b604080516020810190915260008082528251606092915b81811015610803578273__StringUtils___________________________6389c19ddb90918784815181106106a857634e487b7160e01b600052603260045260246000fd5b60200260200101516040518363ffffffff1660e01b81526004016106cd929190610e2b565b60006040518083038186803b1580156106e557600080fd5b505af41580156106f9573d6000803e3d6000fd5b505050506040513d6000823e601f3d908101601f191682016040526107219190810190610c3d565b73__StringUtils___________________________906389c19ddb9084610749856001610fee565b10610763576040518060200160405280600081525061077e565b604051806040016040528060018152602001600b60fa1b8152505b6040518363ffffffff1660e01b815260040161079b929190610e2b565b60006040518083038186803b1580156107b357600080fd5b505af41580156107c7573d6000803e3d6000fd5b505050506040513d6000823e601f3d908101601f191682016040526107ef9190810190610c3d565b9250806107fb81611036565b915050610663565b50909392505050565b6060604051806040016040528060018152602001607b60f81b81525073__StringUtils___________________________6389c19ddb909161084d8561064c565b6040518363ffffffff1660e01b815260040161086a929190610e2b565b60006040518083038186803b15801561088257600080fd5b505af4158015610896573d6000803e3d6000fd5b505050506040513d6000823e601f3d908101601f191682016040526108be9190810190610c3d565b6040516389c19ddb60e01b815273__StringUtils___________________________916389c19ddb916108f49190600401610f29565b60006040518083038186803b15801561090c57600080fd5b505af4158015610920573d6000803e3d6000fd5b505050506040513d6000823e601f3d908101601f191682016040526109489190810190610c3d565b92915050565b60408051808201825260018152601160f91b602082015290516389c19ddb60e01b815260609173__StringUtils___________________________916389c19ddb9161099e918790600401610e2b565b60006040518083038186803b1580156109b657600080fd5b505af41580156109ca573d6000803e3d6000fd5b505050506040513d6000823e601f3d908101601f191682016040526109f29190810190610c3d565b6040516389c19ddb60e01b815273__StringUtils___________________________916389c19ddb91610a289190600401610e50565b60006040518083038186803b158015610a4057600080fd5b505af4158015610a54573d6000803e3d6000fd5b505050506040513d6000823e601f3d908101601f19168201604052610a7c9190810190610c3d565b6040516389c19ddb60e01b815273__StringUtils___________________________916389c19ddb91610ab491908690600401610e2b565b60006040518083038186803b158015610acc57600080fd5b505af4158015610ae0573d6000803e3d6000fd5b505050506040513d6000823e601f3d908101601f19168201604052610b089190810190610c3d565b6040516389c19ddb60e01b815273__StringUtils___________________________916389c19ddb916102f39190600401610ebd565b600082601f830112610b4e578081fd5b8135602067ffffffffffffffff821115610b6a57610b6a611067565b610b778182840201610f95565b82815281810190858301855b85811015610bac57610b9a898684358b0101610bb9565b84529284019290840190600101610b83565b5090979650505050505050565b600082601f830112610bc9578081fd5b8135610bdc610bd782610fc6565b610f95565b818152846020838601011115610bf0578283fd5b816020850160208301379081016020019190915292915050565b600060208284031215610c1b578081fd5b813567ffffffffffffffff811115610c31578182fd5b61057e84828501610b3e565b600060208284031215610c4e578081fd5b815167ffffffffffffffff811115610c64578182fd5b8201601f81018413610c74578182fd5b8051610c82610bd782610fc6565b818152856020838501011115610c96578384fd5b610ca7826020830160208601611006565b95945050505050565b60008060408385031215610cc2578081fd5b823567ffffffffffffffff80821115610cd9578283fd5b610ce586838701610bb9565b93506020850135915080821115610cfa578283fd5b50610d0785828601610b3e565b9150509250929050565b60008060408385031215610d23578182fd5b823567ffffffffffffffff80821115610d3a578384fd5b610d4686838701610bb9565b93506020850135915080821115610d5b578283fd5b50610d0785828601610bb9565b600080600060608486031215610d7c578081fd5b833567ffffffffffffffff80821115610d93578283fd5b610d9f87838801610bb9565b94506020860135915080821115610db4578283fd5b610dc087838801610bb9565b93506040860135915080821115610dd5578283fd5b50610de286828701610bb9565b9150509250925092565b60008151808452610e04816020860160208601611006565b601f01601f19169290920160200192915050565b6000602082526103476020830184610dec565b600060408252610e3e6040830185610dec565b8281036020840152610ca78185610dec565b600060408252610e636040830184610dec565b8281036020938401526003815262111d1160e91b9281019290925250604001919050565b600060408252610e9a6040830184610dec565b828103602084015260018152600b60fa1b60208201526040810191505092915050565b600060408252610ed06040830184610dec565b82810360209384015260018152601160f91b9281019290925250604001919050565b600060408252610f056040830184610dec565b8281036020938401526003815262223a5b60e81b9281019290925250604001919050565b600060408252610f3c6040830184610dec565b828103602084015260018152607d60f81b60208201526040810191505092915050565b600060408252610f726040830184610dec565b828103602084015260018152605d60f81b60208201526040810191505092915050565b604051601f8201601f1916810167ffffffffffffffff81118282101715610fbe57610fbe611067565b604052919050565b600067ffffffffffffffff821115610fe057610fe0611067565b50601f01601f191660200190565b6000821982111561100157611001611051565b500190565b60005b83811015611021578181015183820152602001611009565b83811115611030576000848401525b50505050565b600060001982141561104a5761104a611051565b5060010190565b634e487b7160e01b600052601160045260246000fd5b634e487b7160e01b600052604160045260246000fdfea2646970667358221220b7198bc1ca0a3b9e55376493607628bd1bc9ee3ce7df7e42e45668e69be3e31464736f6c63430008010033",
  "immutableReferences": {},
  "source": "// SPDX-License-Identifier: MIT\r\n\r\npragma solidity 0.8.1;\r\n\r\nimport \"@openzeppelin/contracts/token/ERC721/ERC721.sol\";\r\nimport \"@openzeppelin/contracts/utils/Counters.sol\";\r\nimport \"@openzeppelin/contracts/utils/Base64.sol\";\r\nimport \"@openzeppelin/contracts/access/Ownable.sol\";\r\nimport \"@openzeppelin/contracts/utils/Strings.sol\";\r\nimport \"@openzeppelin/contracts/access/AccessControl.sol\";\r\nimport \"@openzeppelin/contracts/security/ReentrancyGuard.sol\";\r\n\r\ncontract CardContract is ERC721, Ownable {\r\n\r\n    using Counters for Counters.Counter;\r\n    using Base64 for bytes;\r\n    using CardUtils for CardUtils.NormalCard;\r\n    using CardUtils for CardUtils.BattleCard;\r\n\r\n    mapping(uint256 => CardUtils.Card) public CARDS;\r\n    \r\n    //TIPI DI CARTE\r\n    mapping(uint256 => uint256) public UNCOMMON;\r\n    mapping(uint256 => uint256) public COMMON;\r\n    mapping(uint256 => uint256) public RARE;\r\n    mapping(uint256 => uint256) public ULTRA_RARE;\r\n    mapping(uint256 => uint256) public MYTHIC;\r\n\r\n    mapping(uint256 => CardUtils.NormalCard) public normalCard;\r\n    mapping(uint256 => CardUtils.BattleCard) public battleCard;\r\n\r\n    mapping(uint256 => CardUtils.CardType) private cardTypes;\r\n\r\n    Counters.Counter private _tokenCounter;\r\n\r\n    constructor() ERC721(\"CTA\", \"Season 1\") {\r\n        mintCard(\r\n            CardUtils.CardType.Battle,\r\n            CardUtils.Card(\r\n            \"1111\",\r\n            \"1111\",\r\n            1,\r\n            1,\r\n            CardUtils.CardType.Battle,\r\n            \"Good\",\r\n            CardUtils.CardRarity.Common\r\n        ),\r\n        CardUtils.CardInfo(\r\n            \"Shado\",\r\n            \"Shado\",\r\n            1,\r\n            \"J\",\r\n            \"G\"\r\n        ), CardUtils.CardOwner(\r\n            \"345\",\r\n            0x4B0897b0513fdC7C541B6d9D7E929C4e5364D2dB\r\n        ), CardUtils.CardAttr(\r\n            false,\r\n            false\r\n        ), CardUtils.CardExtra(\r\n            \"Fire\",\r\n            \"Arkanthe\",\r\n            \"A\",\r\n            2,\r\n            2,\r\n            4,\r\n            false\r\n        ) );\r\n\r\n            mintCard(\r\n            CardUtils.CardType.Battle,\r\n            CardUtils.Card(\r\n            \"2222\",\r\n            \"2222\",\r\n            1,\r\n            1,\r\n            CardUtils.CardType.Battle,\r\n            \"Good\",\r\n            CardUtils.CardRarity.Mythic\r\n        ),\r\n        CardUtils.CardInfo(\r\n            \"Shado\",\r\n            \"Shado\",\r\n            2,\r\n            \"J\",\r\n            \"G\"\r\n        ), CardUtils.CardOwner(\r\n            \"345\",\r\n            0x4B0897b0513fdC7C541B6d9D7E929C4e5364D2dB\r\n        ), CardUtils.CardAttr(\r\n            false,\r\n            false\r\n        ), CardUtils.CardExtra(\r\n            \"Fire\",\r\n            \"Arkanthe\",\r\n            \"A\",\r\n            2,\r\n            2,\r\n            4,\r\n            false\r\n        ) );\r\n\r\n                   mintCard(\r\n            CardUtils.CardType.Battle,\r\n            CardUtils.Card(\r\n            \"2222\",\r\n            \"2222\",\r\n            1,\r\n            1,\r\n            CardUtils.CardType.Battle,\r\n            \"Good\",\r\n            CardUtils.CardRarity.Mythic\r\n        ),\r\n        CardUtils.CardInfo(\r\n            \"Shado\",\r\n            \"Shado\",\r\n            3,\r\n            \"J\",\r\n            \"G\"\r\n        ), CardUtils.CardOwner(\r\n            \"345\",\r\n            0x4B0897b0513fdC7C541B6d9D7E929C4e5364D2dB\r\n        ), CardUtils.CardAttr(\r\n            false,\r\n            false\r\n        ), CardUtils.CardExtra(\r\n            \"Fire\",\r\n            \"Arkanthe\",\r\n            \"A\",\r\n            2,\r\n            2,\r\n            4,\r\n            false\r\n        ) );\r\n    }\r\n\r\n    fallback() external payable {}\r\n\r\n    receive() external payable {}  \r\n\r\n    function tokenURI(uint256 tokenId) public override view returns(string memory) {\r\n        require(cardTypes[tokenId] != CardUtils.CardType.None, \"Card does not exists\");\r\n        if (cardTypes[tokenId] == CardUtils.CardType.Battle)\r\n            return battleCard[tokenId].toTokenURI();\r\n        return normalCard[tokenId].toTokenURI();        \r\n    }\r\n\r\n    function mergeCard(uint256 tokenId,uint256[] memory burnedTokenId) public returns(uint256){\r\n        //update \"medias\"\r\n        //the card that transforms, has the image in the medias, based on what it transforms\r\n        //madias ->  struct of struct, because if it is an alternative coombo, you don't know which one you have to transform with\r\n\r\n        uint256 len = burnedTokenId.length;\r\n\r\n        for(uint i=0; i<len;i++){\r\n\r\n            burnToken(burnedTokenId[i]);\r\n        }\r\n\r\n        CardUtils.CardType cardTypes = cardTypes[tokenId];\r\n\r\n        //DO YOU DO THE MARGE ONLY OF THE BATTLE? WHY IF THIS WOULD NOT BE USED\r\n        if (cardTypes == CardUtils.CardType.Battle) {\r\n            CardUtils.BattleCard memory card = battleCard[tokenId];\r\n        } else {\r\n            CardUtils.NormalCard memory card = normalCard[tokenId];\r\n        }\r\n\r\n        //to manage the media field, it is an array of arrays and you should select which ones to insert in the image which is then put in the URI token\r\n        //************************** */\r\n        // what if we did it with a FLAG? frag indicating the number of \"medias\" to be selected, this flag is set both when minta and when marge\r\n\r\n\r\n        return tokenId;\r\n    }\r\n\r\n    function mintCard(\r\n        CardUtils.CardType typeOfCard,\r\n        CardUtils.Card memory base,\r\n        CardUtils.CardInfo memory info,\r\n        CardUtils.CardOwner memory owner,\r\n        CardUtils.CardAttr memory attr,\r\n        CardUtils.CardExtra memory extra\r\n    ) public {\r\n        require(typeOfCard != CardUtils.CardType.None, \"Card type is not valid\");\r\n\r\n        uint256 newTokenId = _tokenCounter.current();\r\n\r\n        if (base.rarity == CardUtils.CardRarity.Uncommon)\r\n            UNCOMMON[newTokenId] = newTokenId;\r\n        else if(base.rarity == CardUtils.CardRarity.Common)\r\n            COMMON[newTokenId] = newTokenId;\r\n        else if(base.rarity == CardUtils.CardRarity.Rare)\r\n            RARE[newTokenId] = newTokenId;\r\n        else if(base.rarity == CardUtils.CardRarity.UltraRare)\r\n            ULTRA_RARE[newTokenId] = newTokenId;\r\n        else if(base.rarity == CardUtils.CardRarity.Mythic)\r\n            MYTHIC[newTokenId] = newTokenId;\r\n        \r\n        cardTypes[newTokenId] = typeOfCard;\r\n\r\n        if (typeOfCard == CardUtils.CardType.Battle) {\r\n            battleCard[newTokenId] = CardUtils.BattleCard(base, info, owner, attr, extra);\r\n        } else {\r\n            normalCard[newTokenId] = CardUtils.NormalCard(base, info, owner, attr);\r\n        }\r\n        \r\n        _tokenCounter.increment();\r\n\r\n        _safeMint(msg.sender, newTokenId);\r\n\r\n        CARDS[newTokenId] = base;\r\n\r\n        emit CardMinted(newTokenId, base);\r\n    }\r\n\r\n    event CardMinted (\r\n        uint256 indexed tokenId,\r\n        CardUtils.Card base\r\n    );\r\n\r\n\r\n    function registerMarketPlace(address marketPlace) public {\r\n        setApprovalForAll(marketPlace, true);\r\n    }\r\n\r\n\r\n   //TODO: it would be to reassign name, description, etc., with the variables I already have, and not what they pass to me\r\n   //       so at least I don't risk running into mistakes\r\n\r\n    function updateCard(\r\n    uint256 tokenId,\r\n    CardUtils.Card memory base,\r\n    CardUtils.CardInfo memory info,\r\n    CardUtils.CardOwner memory owner,\r\n    CardUtils.CardAttr memory attr,\r\n    CardUtils.CardExtra memory extra\r\n) public{\r\n    CardUtils.CardType typeOfCard = cardTypes[tokenId];\r\n    require(typeOfCard != CardUtils.CardType.None, \"Card not exists\");\r\n\r\n    if (typeOfCard == CardUtils.CardType.Battle) {\r\n\r\n        CardUtils.BattleCard memory card = battleCard[tokenId];\r\n       \r\n        card.base = base;\r\n        card.info = info;\r\n        card.owner = owner;\r\n        card.attr = attr;\r\n        card.extra = extra;\r\n\r\n        card.base.cardType = typeOfCard;\r\n        battleCard[tokenId] = card;\r\n    } else {\r\n\r\n        CardUtils.NormalCard memory card = normalCard[tokenId];\r\n\r\n        card.base = base;\r\n        card.info = info;\r\n        card.owner = owner;\r\n        card.attr = attr;\r\n\r\n        card.base.cardType = typeOfCard;\r\n        normalCard[tokenId] = card;\r\n    }\r\n}\r\n\r\n     //BURN\r\n    function burnToken(uint256 tokenId) public {\r\n      _burn( tokenId);\r\n    }\r\n\r\n    //TRANSFER\r\n    function TransferNft(address from, address to, uint256 tokenId) public{\r\n        safeTransferFrom(from, to, tokenId);\r\n    }\r\n\r\n}\r\n\r\nlibrary JsonUtils {\r\n    using StringUtils for string;\r\n\r\n    function concat(string memory str1, string memory str2, string memory str3) public pure returns (string memory) {\r\n        return str1.concat(\",\").concat(str2).concat(\",\").concat(str3);\r\n    }\r\n\r\n    function concat(string memory str1, string memory str2) public pure returns (string memory) {\r\n        return str1.concat(\",\").concat(str2);\r\n    }\r\n\r\n    function concat(string[] memory components) public pure returns (string memory) {\r\n        string memory _final = \"\";\r\n        uint256 len = components.length;\r\n        for (uint256 i = 0; i < len; i++) {\r\n            _final = _final.concat(components[i]).concat((i + 1 < len ? \",\" : \"\"));\r\n        }\r\n        return _final;\r\n    }\r\n\r\n    function makeKeyPair(string memory key, string memory value) public pure returns (string memory) {\r\n        return string(\"\\\"\").concat(key).concat(\"\\\":\\\"\").concat(value).concat(\"\\\"\");\r\n    }\r\n\r\n    function makeObject(string[] memory keyPairs) public pure returns (string memory) {\r\n        return string(\"{\").concat(concat(keyPairs)).concat(\"}\");\r\n    }\r\n\r\n    function makeArray(string memory key, string[] memory values) public pure returns (string memory) {\r\n        return string(\"\\\"\").concat(key).concat(\"\\\":[\").concat(concat(values)).concat(\"]\");\r\n    }\r\n}\r\n\r\nlibrary CardUtils {\r\n    using Base64 for bytes;\r\n    using Strings for uint;\r\n    using Strings for uint8;\r\n    using Strings for uint32;\r\n    using Strings for uint256;\r\n    using StringUtils for bool;\r\n    using StringUtils for address;\r\n    using StringUtils for CardRarity;\r\n\r\n    enum CardRarity { None, Uncommon, Common, Rare, UltraRare, Mythic }\r\n    enum CardType { None, Normal, Battle }\r\n\r\n    struct Card {\r\n        string uuid;\r\n        string id;\r\n        uint32 baseId;\r\n        uint32 number;\r\n        CardUtils.CardType cardType;\r\n        string category;\r\n        CardUtils.CardRarity rarity;\r\n    }\r\n    struct CardInfo {\r\n        string name;\r\n        string description; \r\n        uint32 version;\r\n        string illustrator; \r\n        string medias; \r\n    }\r\n    struct CardAttr {\r\n        bool alternative;\r\n        bool foil; \r\n    }\r\n    struct CardOwner {\r\n        string uuid;\r\n        address owner;\r\n    }\r\n    struct CardExtra {\r\n        string element;\r\n        string origin;\r\n        string faction;\r\n        uint32 basePower;\r\n        uint8 potential;\r\n        uint8 rank;\r\n        bool alternativeCombo;\r\n    }\r\n    struct NormalCard {\r\n        Card base;\r\n        CardInfo info;\r\n        CardOwner owner;\r\n        CardAttr attr;\r\n    }\r\n    struct BattleCard {\r\n        Card base;\r\n        CardInfo info;\r\n        CardOwner owner;\r\n        CardAttr attr;\r\n        CardExtra extra;\r\n    }\r\n\r\n    function toTokenURI(NormalCard memory self)\r\n        public pure returns (string memory)\r\n    {\r\n        string[] memory attributes = new string[](4);\r\n        attributes[0] = baseJson(self.base);\r\n        attributes[1] = infoJson(self.info);\r\n        attributes[2] = attrJson(self.attr);\r\n        attributes[3] = ownerJson(self.owner);\r\n\r\n        return string(\r\n            abi.encodePacked(\r\n                \"data:application/json;base64,\",\r\n                abi.encodePacked(\"{\",\r\n                    JsonUtils.concat(\r\n                        headerJson(self.info),\r\n                        JsonUtils.makeArray(\"attributes\", attributes)\r\n                    ),\r\n                \"}\").encode()\r\n            )           \r\n        );\r\n    }\r\n\r\n    function toTokenURI(BattleCard memory self)\r\n        public pure returns (string memory)\r\n    {\r\n        string[] memory attributes = new string[](5);\r\n        attributes[0] = baseJson(self.base);\r\n        attributes[1] = infoJson(self.info);\r\n        attributes[2] = attrJson(self.attr);\r\n        attributes[3] = ownerJson(self.owner);\r\n        attributes[4] = extraJson(self.extra);\r\n\r\n        return string(\r\n            abi.encodePacked(\r\n                \"data:application/json;base64,\",\r\n                abi.encodePacked(\"{\",\r\n                    JsonUtils.concat(\r\n                        headerJson(self.info),\r\n                        JsonUtils.makeArray(\"attributes\", attributes)\r\n                    ),\r\n                \"}\").encode()\r\n            )\r\n        );\r\n    }\r\n\r\n    function attributeTraitType(string memory traitType, string memory traitValue)\r\n        public pure returns (string memory)\r\n    {\r\n        string[] memory keyPairs = new string[](2);\r\n        keyPairs[0] = JsonUtils.makeKeyPair(\"trait_type\", traitType);\r\n        keyPairs[1] = JsonUtils.makeKeyPair(\"value\", traitValue);\r\n        return JsonUtils.makeObject(keyPairs);\r\n    }\r\n\r\n    function headerJson(CardInfo memory self)\r\n        public pure returns (string memory)\r\n    {\r\n        string[] memory components = new string[](4);\r\n        components[0] = JsonUtils.makeKeyPair(\"name\", self.name);\r\n        components[1] = JsonUtils.makeKeyPair(\"description\", self.description);\r\n        components[2] = JsonUtils.makeKeyPair(\"image\", self.medias);\r\n        components[3] = JsonUtils.makeKeyPair(\"animation_url\", self.medias);\r\n        return JsonUtils.concat(components);\r\n    }\r\n\r\n    function infoJson(CardInfo memory self)\r\n        public pure returns (string memory)\r\n    {\r\n        string[] memory components = new string[](2);\r\n        components[0] = attributeTraitType(\"illustrator\", self.illustrator);\r\n        components[1] = attributeTraitType(\"version\", self.version.toString());\r\n        return JsonUtils.concat(components);\r\n    }\r\n\r\n    function attrJson(CardAttr memory self)\r\n        public pure returns (string memory)\r\n    {\r\n        string[] memory components = new string[](2);\r\n        components[0] = attributeTraitType(\"alternative\", self.alternative.toString());\r\n        components[1] = attributeTraitType(\"foil\", self.foil.toString());\r\n        return JsonUtils.concat(components);\r\n    }\r\n\r\n    function extraJson(CardExtra memory self)\r\n        public pure returns (string memory)\r\n    {\r\n        string[] memory components = new string[](7);\r\n        components[0] = attributeTraitType(\"card Element\", self.element);\r\n        components[1] = attributeTraitType(\"card Origin\", self.origin);\r\n        components[2] = attributeTraitType(\"card Faction\", self.faction);\r\n        components[3] = attributeTraitType(\"base Power\", self.basePower.toString());\r\n        components[4] = attributeTraitType(\"potential\", self.potential.toString());\r\n        components[5] = attributeTraitType(\"rank\", self.rank.toString());\r\n        components[6] = attributeTraitType(\"alternative Combo\", self.alternativeCombo.toString());\r\n        return JsonUtils.concat(components);\r\n    }\r\n\r\n    function ownerJson(CardOwner memory self)\r\n        public pure returns (string memory)\r\n    {\r\n        string[] memory components = new string[](2);\r\n        components[0] = attributeTraitType(\"ownerUuid\", self.uuid);\r\n        components[1] = attributeTraitType(\"ownerAddress\", self.owner.toString());\r\n        return JsonUtils.concat(components);\r\n    }\r\n\r\n    function baseJson(Card memory self)\r\n        public pure returns (string memory)\r\n    {\r\n        string[] memory components = new string[](4);\r\n        components[0] = attributeTraitType(\"number\", self.number.toString());\r\n        components[1] = attributeTraitType(\"card Type\", uint(self.cardType).toString());\r\n        components[2] = attributeTraitType(\"card Category\", self.category);\r\n        components[3] = attributeTraitType(\"card Rarity\", self.rarity.toString());\r\n        return JsonUtils.concat(components);\r\n    }\r\n}\r\n\r\nlibrary StringUtils {\r\n\r\n    function toString(bool self) public pure returns (string memory) {\r\n        return (self) ? \"true\" : \"false\";\r\n    }\r\n\r\n    function compareStrings(string memory a, string memory b) internal pure returns (bool) {\r\n        return (keccak256(abi.encodePacked((a))) == keccak256(abi.encodePacked((b))));\r\n    }\r\n\r\n    function toString(address self) public pure returns (string memory) {\r\n        return Strings.toHexString(uint160(self), 20);\r\n    }\r\n\r\n    function toString(CardUtils.CardRarity self) public pure returns (string memory) {\r\n        if (self == CardUtils.CardRarity.Uncommon) {\r\n            return \"Uncommon\";\r\n        } else if (self == CardUtils.CardRarity.Common) {\r\n            return \"Common\";\r\n        } else if (self == CardUtils.CardRarity.Rare) {\r\n            return \"Rare\";\r\n        } else if (self == CardUtils.CardRarity.UltraRare) {\r\n            return \"UltraRare\";\r\n        } else if (self == CardUtils.CardRarity.Mythic) {\r\n            return \"Mythic\";\r\n        } else {\r\n            return \"None\";\r\n        }\r\n    }\r\n\r\n    function concat(string memory self, string memory concatenation) public pure returns (string memory) {\r\n        return string(abi.encodePacked(self, concatenation));\r\n    }\r\n}\r\n",
  "sourcePath": "D:\\BlockchainDevelopments\\BCTS\\Original_BCTS_SmartContract\\contracts\\CardContract.sol",
  "compiler": {
    "name": "solc",
    "version": "0.8.1+commit.df193b15.Emscripten.clang"
  },
  "schemaVersion": "3.4.7",
  "updatedAt": "2022-05-26T05:36:06.515Z",
  "devdoc": {
    "kind": "dev",
    "methods": {},
    "version": 1
  },
  "userdoc": {
    "kind": "user",
    "methods": {},
    "version": 1
  }
}