{
  "contractName": "StringUtils",
  "abi": [
    {
      "inputs": [
        {
          "internalType": "enum CardUtils.CardRarity",
          "name": "self",
          "type": "CardUtils.CardRarity"
        }
      ],
      "name": "toString",
      "outputs": [
        {
          "internalType": "string",
          "name": "",
          "type": "string"
        }
      ],
      "stateMutability": "pure",
      "type": "function"
    },
    {
      "inputs": [
        {
          "internalType": "address",
          "name": "self",
          "type": "address"
        }
      ],
      "name": "toString",
      "outputs": [
        {
          "internalType": "string",
          "name": "",
          "type": "string"
        }
      ],
      "stateMutability": "pure",
      "type": "function"
    },
    {
      "inputs": [
        {
          "internalType": "bool",
          "name": "self",
          "type": "bool"
        }
      ],
      "name": "toString",
      "outputs": [
        {
          "internalType": "string",
          "name": "",
          "type": "string"
        }
      ],
      "stateMutability": "pure",
      "type": "function"
    },
    {
      "inputs": [
        {
          "internalType": "string",
          "name": "self",
          "type": "string"
        },
        {
          "internalType": "string",
          "name": "concatenation",
          "type": "string"
        }
      ],
      "name": "concat",
      "outputs": [
        {
          "internalType": "string",
          "name": "",
          "type": "string"
        }
      ],
      "stateMutability": "pure",
      "type": "function"
    }
  ],
  "bytecode": "0x61077461003a600b82828239805160001a60731461002d57634e487b7160e01b600052600060045260246000fd5b30600052607381538281f3fe73000000000000000000000000000000000000000030146080604052600436106100565760003560e01c80634422c0aa1461005b57806356ca623e1461008457806371dce7da1461009757806389c19ddb146100aa575b600080fd5b61006e61006936600461057d565b6100bd565b60405161007b919061062c565b60405180910390f35b61006e610092366004610536565b61025b565b61006e6100a536600461055d565b610277565b61006e6100b836600461059c565b6102c1565b606060018260058111156100e157634e487b7160e01b600052602160045260246000fd5b141561010c57506040805180820190915260088152672ab731b7b6b6b7b760c11b6020820152610256565b600282600581111561012e57634e487b7160e01b600052602160045260246000fd5b1415610157575060408051808201909152600681526521b7b6b6b7b760d11b6020820152610256565b600382600581111561017957634e487b7160e01b600052602160045260246000fd5b14156101a057506040805180820190915260048152635261726560e01b6020820152610256565b60048260058111156101c257634e487b7160e01b600052602160045260246000fd5b14156101ee5750604080518082019091526009815268556c7472615261726560b81b6020820152610256565b600582600581111561021057634e487b7160e01b600052602160045260246000fd5b141561023957506040805180820190915260068152654d797468696360d01b6020820152610256565b506040805180820190915260048152634e6f6e6560e01b60208201525b919050565b6060610271826001600160a01b031660146102ed565b92915050565b6060816102a1576040518060400160405280600581526020016466616c736560d81b815250610271565b50506040805180820190915260048152637472756560e01b602082015290565b606082826040516020016102d69291906105fd565b604051602081830303815290604052905092915050565b606060006102fc8360026106ac565b610307906002610694565b67ffffffffffffffff81111561032d57634e487b7160e01b600052604160045260246000fd5b6040519080825280601f01601f191660200182016040528015610357576020820181803683370190505b509050600360fc1b8160008151811061038057634e487b7160e01b600052603260045260246000fd5b60200101906001600160f81b031916908160001a905350600f60fb1b816001815181106103bd57634e487b7160e01b600052603260045260246000fd5b60200101906001600160f81b031916908160001a90535060006103e18460026106ac565b6103ec906001610694565b90505b6001811115610480576f181899199a1a9b1b9c1cb0b131b232b360811b85600f166010811061042e57634e487b7160e01b600052603260045260246000fd5b1a60f81b82828151811061045257634e487b7160e01b600052603260045260246000fd5b60200101906001600160f81b031916908160001a90535060049490941c93610479816106fb565b90506103ef565b5083156104a85760405162461bcd60e51b815260040161049f9061065f565b60405180910390fd5b9392505050565b600082601f8301126104bf578081fd5b813567ffffffffffffffff808211156104da576104da610728565b604051601f8301601f19908116603f0116810190828211818310171561050257610502610728565b8160405283815286602085880101111561051a578485fd5b8360208701602083013792830160200193909352509392505050565b600060208284031215610547578081fd5b81356001600160a01b03811681146104a8578182fd5b60006020828403121561056e578081fd5b813580151581146104a8578182fd5b60006020828403121561058e578081fd5b8135600681106104a8578182fd5b600080604083850312156105ae578081fd5b823567ffffffffffffffff808211156105c5578283fd5b6105d1868387016104af565b935060208501359150808211156105e6578283fd5b506105f3858286016104af565b9150509250929050565b6000835161060f8184602088016106cb565b8351908301906106238183602088016106cb565b01949350505050565b600060208252825180602084015261064b8160408501602087016106cb565b601f01601f19169190910160400192915050565b6020808252818101527f537472696e67733a20686578206c656e67746820696e73756666696369656e74604082015260600190565b600082198211156106a7576106a7610712565b500190565b60008160001904831182151516156106c6576106c6610712565b500290565b60005b838110156106e65781810151838201526020016106ce565b838111156106f5576000848401525b50505050565b60008161070a5761070a610712565b506000190190565b634e487b7160e01b600052601160045260246000fd5b634e487b7160e01b600052604160045260246000fdfea2646970667358221220ff0dd3abf15eab86e3818e698615d14cea6baf9f07db3e48c5e7d55944b88f8764736f6c63430008010033",
  "immutableReferences": {},
  "source": "// SPDX-License-Identifier: MIT\r\n\r\npragma solidity 0.8.1;\r\n\r\nimport \"@openzeppelin/contracts/token/ERC721/ERC721.sol\";\r\nimport \"@openzeppelin/contracts/utils/Counters.sol\";\r\nimport \"@openzeppelin/contracts/utils/Base64.sol\";\r\nimport \"@openzeppelin/contracts/access/Ownable.sol\";\r\nimport \"@openzeppelin/contracts/utils/Strings.sol\";\r\nimport \"@openzeppelin/contracts/access/AccessControl.sol\";\r\nimport \"@openzeppelin/contracts/security/ReentrancyGuard.sol\";\r\n\r\ncontract CardContract is ERC721, Ownable {\r\n\r\n    using Counters for Counters.Counter;\r\n    using Base64 for bytes;\r\n    using CardUtils for CardUtils.NormalCard;\r\n    using CardUtils for CardUtils.BattleCard;\r\n    mapping(uint256 => CardUtils.Card) public CARDS;\r\n    \r\n    //TIPI DI CARTE\r\n    mapping(uint256 => uint256) public UNCOMMON;\r\n    mapping(uint256 => uint256) public COMMON;\r\n    mapping(uint256 => uint256) public RARE;\r\n    mapping(uint256 => uint256) public ULTRA_RARE;\r\n    mapping(uint256 => uint256) public MYTHIC;\r\n    mapping(uint256 => CardUtils.NormalCard) public normalCard;\r\n    mapping(uint256 => CardUtils.BattleCard) public battleCard;\r\n    mapping(uint256 => CardUtils.CardType) private cardTypes;\r\n\r\n    Counters.Counter private _tokenCounter;\r\n    constructor() ERC721(\"CTA\", \"Season 1\") {\r\n      mintCard(\r\n            CardUtils.CardType.Battle,\r\n            CardUtils.Card(\r\n            \"1111\",\r\n            \"1111\",\r\n            1,\r\n            1,\r\n            CardUtils.CardType.Battle,\r\n            \"Good\",\r\n            CardUtils.CardRarity.Common\r\n        ),\r\n        CardUtils.CardInfo(\r\n            \"Shado\",\r\n            \"Shado\",\r\n            1,\r\n            \"J\",\r\n            \"G\"\r\n        ), CardUtils.CardOwner(\r\n            \"345\",\r\n            0x7D93107852454857C511b0c1E590b59B4cE34758\r\n        ), CardUtils.CardAttr(\r\n            false,\r\n            false\r\n        ), CardUtils.CardExtra(\r\n            \"Fire\",\r\n            \"Arkanthe\",\r\n            \"A\",\r\n            2,\r\n            2,\r\n            4,\r\n            false\r\n        ) );\r\n\r\n            mintCard(\r\n            CardUtils.CardType.Battle,\r\n            CardUtils.Card(\r\n            \"2222\",\r\n            \"2222\",\r\n            1,\r\n            1,\r\n            CardUtils.CardType.Battle,\r\n            \"Good\",\r\n            CardUtils.CardRarity.Mythic\r\n        ),\r\n        CardUtils.CardInfo(\r\n            \"Shado\",\r\n            \"Shado\",\r\n            2,\r\n            \"J\",\r\n            \"G\"\r\n        ), CardUtils.CardOwner(\r\n            \"345\",\r\n            0x7D93107852454857C511b0c1E590b59B4cE34758\r\n        ), CardUtils.CardAttr(\r\n            false,\r\n            false\r\n        ), CardUtils.CardExtra(\r\n            \"Fire\",\r\n            \"Arkanthe\",\r\n            \"A\",\r\n            2,\r\n            2,\r\n            4,\r\n            false\r\n        ) );\r\n\r\n        mintCard(\r\n            CardUtils.CardType.Battle,\r\n            CardUtils.Card(\r\n            \"3333\",\r\n            \"3333\",\r\n            1,\r\n            1,\r\n            CardUtils.CardType.Battle,\r\n            \"Good\",\r\n            CardUtils.CardRarity.Mythic\r\n        ),\r\n        CardUtils.CardInfo(\r\n            \"Shado\",\r\n            \"Shado\",\r\n            3,\r\n            \"J\",\r\n            \"G\"\r\n        ), CardUtils.CardOwner(\r\n            \"345\",\r\n            0x7D93107852454857C511b0c1E590b59B4cE34758\r\n        ), CardUtils.CardAttr(\r\n            false,\r\n            false\r\n        ), CardUtils.CardExtra(\r\n            \"Fire\",\r\n            \"Arkanthe\",\r\n            \"A\",\r\n            2,\r\n            2,\r\n            4,\r\n            false\r\n        ) );\r\n      \r\n    }\r\n\r\n    fallback() external payable {}\r\n    receive() external payable {}  \r\n    event MergeCard(uint256 indexed tokenId, uint256[] burnedTokenId);\r\n    event MintCard(address indexed sender, uint256 indexed tokenId, CardUtils.CardType typeOfCard, CardUtils.Card base, CardUtils.CardInfo info, CardUtils.CardOwner owner, CardUtils.CardAttr attr, CardUtils.CardExtra extra);\r\n    event UpdateCard(uint256 indexed tokenId, CardUtils.CardType typeOfCard, CardUtils.Card base, CardUtils.CardInfo info,  CardUtils.CardOwner owner, CardUtils.CardAttr attr, CardUtils.CardExtra extra);\r\n    event BurnToken(address indexed sender, uint256  indexed tokenId);\r\n    event transferNft(address indexed from, address indexed to, uint256 indexed tokenId);\r\n    event RegisterMarketPlace(address indexed marketPlaceApprover, bool isApproved);\r\n    function tokenURI(uint256 tokenId) public override view returns(string memory) {\r\n        require(cardTypes[tokenId] != CardUtils.CardType.None, \"Card does not exists\");\r\n        if (cardTypes[tokenId] == CardUtils.CardType.Battle)\r\n            return battleCard[tokenId].toTokenURI();\r\n        return normalCard[tokenId].toTokenURI();        \r\n    }\r\n\r\n    function mergeCard(uint256 tokenId,uint256[] memory burnedTokenId) public returns(uint256){\r\n        //update \"medias\"\r\n        //the card that transforms, has the image in the medias, based on what it transforms\r\n        //madias ->  struct of struct, because if it is an alternative coombo, you don't know which one you have to transform with\r\n\r\n        uint256 len = burnedTokenId.length;\r\n\r\n        for(uint i=0; i<len;i++){\r\n\r\n            burnToken(burnedTokenId[i]);\r\n        }\r\n\r\n        CardUtils.CardType cardTypes = cardTypes[tokenId];\r\n\r\n        //DO YOU DO THE MARGE ONLY OF THE BATTLE? WHY IF THIS WOULD NOT BE USED\r\n        if (cardTypes == CardUtils.CardType.Battle) {\r\n            CardUtils.BattleCard memory card = battleCard[tokenId];\r\n        } else {\r\n            CardUtils.NormalCard memory card = normalCard[tokenId];\r\n        }\r\n\r\n        //to manage the media field, it is an array of arrays and you should select which ones to insert in the image which is then put in the URI token\r\n        //************************** */\r\n        // what if we did it with a FLAG? frag indicating the number of \"medias\" to be selected, this flag is set both when minta and when marge\r\n\r\n        emit MergeCard(tokenId, burnedTokenId);\r\n        return tokenId;\r\n    }\r\n\r\n    function mintCard(\r\n        CardUtils.CardType typeOfCard,\r\n        CardUtils.Card memory base,\r\n        CardUtils.CardInfo memory info,\r\n        CardUtils.CardOwner memory owner,\r\n        CardUtils.CardAttr memory attr,\r\n        CardUtils.CardExtra memory extra\r\n    ) public {\r\n        require(typeOfCard != CardUtils.CardType.None, \"Card type is not valid\");\r\n\r\n        uint256 newTokenId = _tokenCounter.current();\r\n\r\n        if (base.rarity == CardUtils.CardRarity.Uncommon)\r\n            UNCOMMON[newTokenId] = newTokenId;\r\n        else if(base.rarity == CardUtils.CardRarity.Common)\r\n            COMMON[newTokenId] = newTokenId;\r\n        else if(base.rarity == CardUtils.CardRarity.Rare)\r\n            RARE[newTokenId] = newTokenId;\r\n        else if(base.rarity == CardUtils.CardRarity.UltraRare)\r\n            ULTRA_RARE[newTokenId] = newTokenId;\r\n        else if(base.rarity == CardUtils.CardRarity.Mythic)\r\n            MYTHIC[newTokenId] = newTokenId;\r\n        \r\n        cardTypes[newTokenId] = typeOfCard;\r\n\r\n        if (typeOfCard == CardUtils.CardType.Battle) {\r\n            battleCard[newTokenId] = CardUtils.BattleCard(base, info, owner, attr, extra);\r\n        } else {\r\n            normalCard[newTokenId] = CardUtils.NormalCard(base, info, owner, attr);\r\n        }\r\n        \r\n        _tokenCounter.increment();\r\n\r\n        _safeMint(msg.sender, newTokenId);\r\n\r\n        CARDS[newTokenId] = base;\r\n\r\n        emit MintCard(msg.sender, newTokenId, typeOfCard, base, info, owner, attr, extra);\r\n    }\r\n\r\n    function registerMarketPlace(address marketPlace) public {\r\n        setApprovalForAll(marketPlace, true);\r\n         emit RegisterMarketPlace(marketPlace, true);\r\n    }\r\n\r\n   //TODO: it would be to reassign name, description, etc., with the variables I already have, and not what they pass to me\r\n   //       so at least I don't risk running into mistakes\r\n\r\n    function updateCard(\r\n    uint256 tokenId,\r\n    CardUtils.Card memory base,\r\n    CardUtils.CardInfo memory info,\r\n    CardUtils.CardOwner memory owner,\r\n    CardUtils.CardAttr memory attr,\r\n    CardUtils.CardExtra memory extra\r\n    ) public{\r\n        CardUtils.CardType typeOfCard = cardTypes[tokenId];\r\n        require(typeOfCard != CardUtils.CardType.None, \"Card not exists\");\r\n\r\n        if (typeOfCard == CardUtils.CardType.Battle) {\r\n\r\n            CardUtils.BattleCard memory card = battleCard[tokenId];\r\n        \r\n            card.base = base;\r\n            card.info = info;\r\n            card.owner = owner;\r\n            card.attr = attr;\r\n            card.extra = extra;\r\n\r\n            card.base.cardType = typeOfCard;\r\n            battleCard[tokenId] = card;\r\n        } else {\r\n\r\n            CardUtils.NormalCard memory card = normalCard[tokenId];\r\n\r\n            card.base = base;\r\n            card.info = info;\r\n            card.owner = owner;\r\n            card.attr = attr;\r\n\r\n            card.base.cardType = typeOfCard;\r\n            normalCard[tokenId] = card;\r\n        }\r\n        emit UpdateCard(tokenId, typeOfCard, base, info,  owner, attr, extra);\r\n    }\r\n\r\n    //BURN\r\n    function burnToken(uint256 tokenId) public {\r\n        _burn(tokenId);\r\n        emit BurnToken(msg.sender, tokenId);\r\n    }\r\n\r\n    //TRANSFER\r\n    function TransferNft(address from, address to, uint256 tokenId) public{\r\n        safeTransferFrom(from, to, tokenId);\r\n        emit transferNft(from, to, tokenId);\r\n    }\r\n\r\n}\r\n\r\nlibrary JsonUtils {\r\n    using StringUtils for string;\r\n\r\n    function concat(string memory str1, string memory str2, string memory str3) public pure returns (string memory) {\r\n        return str1.concat(\",\").concat(str2).concat(\",\").concat(str3);\r\n    }\r\n\r\n    function concat(string memory str1, string memory str2) public pure returns (string memory) {\r\n        return str1.concat(\",\").concat(str2);\r\n    }\r\n\r\n    function concat(string[] memory components) public pure returns (string memory) {\r\n        string memory _final = \"\";\r\n        uint256 len = components.length;\r\n        for (uint256 i = 0; i < len; i++) {\r\n            _final = _final.concat(components[i]).concat((i + 1 < len ? \",\" : \"\"));\r\n        }\r\n        return _final;\r\n    }\r\n\r\n    function makeKeyPair(string memory key, string memory value) public pure returns (string memory) {\r\n        return string(\"\\\"\").concat(key).concat(\"\\\":\\\"\").concat(value).concat(\"\\\"\");\r\n    }\r\n\r\n    function makeObject(string[] memory keyPairs) public pure returns (string memory) {\r\n        return string(\"{\").concat(concat(keyPairs)).concat(\"}\");\r\n    }\r\n\r\n    function makeArray(string memory key, string[] memory values) public pure returns (string memory) {\r\n        return string(\"\\\"\").concat(key).concat(\"\\\":[\").concat(concat(values)).concat(\"]\");\r\n    }\r\n}\r\n\r\nlibrary CardUtils {\r\n    using Base64 for bytes;\r\n    using Strings for uint;\r\n    using Strings for uint8;\r\n    using Strings for uint32;\r\n    using Strings for uint256;\r\n    using StringUtils for bool;\r\n    using StringUtils for address;\r\n    using StringUtils for CardRarity;\r\n\r\n    enum CardRarity { None, Uncommon, Common, Rare, UltraRare, Mythic }\r\n    enum CardType { None, Normal, Battle }\r\n\r\n    struct Card {\r\n        string uuid;\r\n        string id;\r\n        uint32 baseId;\r\n        uint32 number;\r\n        CardUtils.CardType cardType;\r\n        string category;\r\n        CardUtils.CardRarity rarity;\r\n    }\r\n    struct CardInfo {\r\n        string name;\r\n        string description; \r\n        uint32 version;\r\n        string illustrator; \r\n        string medias; \r\n    }\r\n    struct CardAttr {\r\n        bool alternative;\r\n        bool foil; \r\n    }\r\n    struct CardOwner {\r\n        string uuid;\r\n        address owner;\r\n    }\r\n    struct CardExtra {\r\n        string element;\r\n        string origin;\r\n        string faction;\r\n        uint32 basePower;\r\n        uint8 potential;\r\n        uint8 rank;\r\n        bool alternativeCombo;\r\n    }\r\n    struct NormalCard {\r\n        Card base;\r\n        CardInfo info;\r\n        CardOwner owner;\r\n        CardAttr attr;\r\n    }\r\n    struct BattleCard {\r\n        Card base;\r\n        CardInfo info;\r\n        CardOwner owner;\r\n        CardAttr attr;\r\n        CardExtra extra;\r\n    }\r\n\r\n    function toTokenURI(NormalCard memory self)\r\n        public pure returns (string memory)\r\n    {\r\n        string[] memory attributes = new string[](4);\r\n        attributes[0] = baseJson(self.base);\r\n        attributes[1] = infoJson(self.info);\r\n        attributes[2] = attrJson(self.attr);\r\n        attributes[3] = ownerJson(self.owner);\r\n\r\n        return string(\r\n            abi.encodePacked(\r\n                \"data:application/json;base64,\",\r\n                abi.encodePacked(\"{\",\r\n                    JsonUtils.concat(\r\n                        headerJson(self.info),\r\n                        JsonUtils.makeArray(\"attributes\", attributes)\r\n                    ),\r\n                \"}\").encode()\r\n            )           \r\n        );\r\n    }\r\n\r\n    function toTokenURI(BattleCard memory self)\r\n        public pure returns (string memory)\r\n    {\r\n        string[] memory attributes = new string[](5);\r\n        attributes[0] = baseJson(self.base);\r\n        attributes[1] = infoJson(self.info);\r\n        attributes[2] = attrJson(self.attr);\r\n        attributes[3] = ownerJson(self.owner);\r\n        attributes[4] = extraJson(self.extra);\r\n\r\n        return string(\r\n            abi.encodePacked(\r\n                \"data:application/json;base64,\",\r\n                abi.encodePacked(\"{\",\r\n                    JsonUtils.concat(\r\n                        headerJson(self.info),\r\n                        JsonUtils.makeArray(\"attributes\", attributes)\r\n                    ),\r\n                \"}\").encode()\r\n            )\r\n        );\r\n    }\r\n\r\n    function attributeTraitType(string memory traitType, string memory traitValue)\r\n        public pure returns (string memory)\r\n    {\r\n        string[] memory keyPairs = new string[](2);\r\n        keyPairs[0] = JsonUtils.makeKeyPair(\"trait_type\", traitType);\r\n        keyPairs[1] = JsonUtils.makeKeyPair(\"value\", traitValue);\r\n        return JsonUtils.makeObject(keyPairs);\r\n    }\r\n\r\n    function headerJson(CardInfo memory self)\r\n        public pure returns (string memory)\r\n    {\r\n        string[] memory components = new string[](4);\r\n        components[0] = JsonUtils.makeKeyPair(\"name\", self.name);\r\n        components[1] = JsonUtils.makeKeyPair(\"description\", self.description);\r\n        components[2] = JsonUtils.makeKeyPair(\"image\", self.medias);\r\n        components[3] = JsonUtils.makeKeyPair(\"animation_url\", self.medias);\r\n        return JsonUtils.concat(components);\r\n    }\r\n\r\n    function infoJson(CardInfo memory self)\r\n        public pure returns (string memory)\r\n    {\r\n        string[] memory components = new string[](2);\r\n        components[0] = attributeTraitType(\"illustrator\", self.illustrator);\r\n        components[1] = attributeTraitType(\"version\", self.version.toString());\r\n        return JsonUtils.concat(components);\r\n    }\r\n\r\n    function attrJson(CardAttr memory self)\r\n        public pure returns (string memory)\r\n    {\r\n        string[] memory components = new string[](2);\r\n        components[0] = attributeTraitType(\"alternative\", self.alternative.toString());\r\n        components[1] = attributeTraitType(\"foil\", self.foil.toString());\r\n        return JsonUtils.concat(components);\r\n    }\r\n\r\n    function extraJson(CardExtra memory self)\r\n        public pure returns (string memory)\r\n    {\r\n        string[] memory components = new string[](7);\r\n        components[0] = attributeTraitType(\"card Element\", self.element);\r\n        components[1] = attributeTraitType(\"card Origin\", self.origin);\r\n        components[2] = attributeTraitType(\"card Faction\", self.faction);\r\n        components[3] = attributeTraitType(\"base Power\", self.basePower.toString());\r\n        components[4] = attributeTraitType(\"potential\", self.potential.toString());\r\n        components[5] = attributeTraitType(\"rank\", self.rank.toString());\r\n        components[6] = attributeTraitType(\"alternative Combo\", self.alternativeCombo.toString());\r\n        return JsonUtils.concat(components);\r\n    }\r\n\r\n    function ownerJson(CardOwner memory self)\r\n        public pure returns (string memory)\r\n    {\r\n        string[] memory components = new string[](2);\r\n        components[0] = attributeTraitType(\"ownerUuid\", self.uuid);\r\n        components[1] = attributeTraitType(\"ownerAddress\", self.owner.toString());\r\n        return JsonUtils.concat(components);\r\n    }\r\n\r\n    function baseJson(Card memory self)\r\n        public pure returns (string memory)\r\n    {\r\n        string[] memory components = new string[](4);\r\n        components[0] = attributeTraitType(\"number\", self.number.toString());\r\n        components[1] = attributeTraitType(\"card Type\", uint(self.cardType).toString());\r\n        components[2] = attributeTraitType(\"card Category\", self.category);\r\n        components[3] = attributeTraitType(\"card Rarity\", self.rarity.toString());\r\n        return JsonUtils.concat(components);\r\n    }\r\n}\r\n\r\nlibrary StringUtils {\r\n\r\n    function toString(bool self) public pure returns (string memory) {\r\n        return (self) ? \"true\" : \"false\";\r\n    }\r\n\r\n    function compareStrings(string memory a, string memory b) internal pure returns (bool) {\r\n        return (keccak256(abi.encodePacked((a))) == keccak256(abi.encodePacked((b))));\r\n    }\r\n\r\n    function toString(address self) public pure returns (string memory) {\r\n        return Strings.toHexString(uint160(self), 20);\r\n    }\r\n\r\n    function toString(CardUtils.CardRarity self) public pure returns (string memory) {\r\n        if (self == CardUtils.CardRarity.Uncommon) {\r\n            return \"Uncommon\";\r\n        } else if (self == CardUtils.CardRarity.Common) {\r\n            return \"Common\";\r\n        } else if (self == CardUtils.CardRarity.Rare) {\r\n            return \"Rare\";\r\n        } else if (self == CardUtils.CardRarity.UltraRare) {\r\n            return \"UltraRare\";\r\n        } else if (self == CardUtils.CardRarity.Mythic) {\r\n            return \"Mythic\";\r\n        } else {\r\n            return \"None\";\r\n        }\r\n    }\r\n\r\n    function concat(string memory self, string memory concatenation) public pure returns (string memory) {\r\n        return string(abi.encodePacked(self, concatenation));\r\n    }\r\n}\r\n",
  "sourcePath": "D:\\BlockchainDevelopments\\BCTS\\Original_BCTS_SmartContract\\contracts\\CardContract.sol",
  "compiler": {
    "name": "solc",
    "version": "0.8.1+commit.df193b15.Emscripten.clang"
  },
  "schemaVersion": "3.4.7",
  "updatedAt": "2022-05-26T06:52:01.396Z",
  "devdoc": {
    "kind": "dev",
    "methods": {},
    "version": 1
  },
  "userdoc": {
    "kind": "user",
    "methods": {},
    "version": 1
  }
}